{
  "contractName": "farmToken",
  "abi": [
    {
      "inputs": [],
      "stateMutability": "nonpayable",
      "type": "constructor"
    },
    {
      "anonymous": false,
      "inputs": [
        {
          "indexed": true,
          "internalType": "address",
          "name": "owner",
          "type": "address"
        },
        {
          "indexed": true,
          "internalType": "address",
          "name": "approved",
          "type": "address"
        },
        {
          "indexed": true,
          "internalType": "uint256",
          "name": "tokenId",
          "type": "uint256"
        }
      ],
      "name": "Approval",
      "type": "event"
    },
    {
      "anonymous": false,
      "inputs": [
        {
          "indexed": true,
          "internalType": "address",
          "name": "owner",
          "type": "address"
        },
        {
          "indexed": true,
          "internalType": "address",
          "name": "operator",
          "type": "address"
        },
        {
          "indexed": false,
          "internalType": "bool",
          "name": "approved",
          "type": "bool"
        }
      ],
      "name": "ApprovalForAll",
      "type": "event"
    },
    {
      "anonymous": false,
      "inputs": [
        {
          "indexed": false,
          "internalType": "address",
          "name": "owner",
          "type": "address"
        },
        {
          "indexed": false,
          "internalType": "uint256",
          "name": "numAuctions",
          "type": "uint256"
        }
      ],
      "name": "AuctionCreated",
      "type": "event"
    },
    {
      "anonymous": false,
      "inputs": [
        {
          "indexed": false,
          "internalType": "address",
          "name": "bidder",
          "type": "address"
        },
        {
          "indexed": false,
          "internalType": "uint256",
          "name": "bid",
          "type": "uint256"
        },
        {
          "indexed": false,
          "internalType": "address",
          "name": "highestBidder",
          "type": "address"
        },
        {
          "indexed": false,
          "internalType": "uint256",
          "name": "highestBid",
          "type": "uint256"
        }
      ],
      "name": "Bid",
      "type": "event"
    },
    {
      "anonymous": false,
      "inputs": [
        {
          "indexed": false,
          "internalType": "address",
          "name": "withdrawer",
          "type": "address"
        },
        {
          "indexed": false,
          "internalType": "address",
          "name": "claimer",
          "type": "address"
        },
        {
          "indexed": false,
          "internalType": "uint256",
          "name": "token",
          "type": "uint256"
        }
      ],
      "name": "Claimed",
      "type": "event"
    },
    {
      "anonymous": false,
      "inputs": [
        {
          "indexed": false,
          "internalType": "address",
          "name": "addr",
          "type": "address"
        },
        {
          "indexed": false,
          "internalType": "uint256",
          "name": "value",
          "type": "uint256"
        }
      ],
      "name": "GotPaid",
      "type": "event"
    },
    {
      "anonymous": false,
      "inputs": [
        {
          "indexed": false,
          "internalType": "address",
          "name": "addr",
          "type": "address"
        },
        {
          "indexed": false,
          "internalType": "uint256",
          "name": "value",
          "type": "uint256"
        }
      ],
      "name": "Refund",
      "type": "event"
    },
    {
      "anonymous": false,
      "inputs": [
        {
          "indexed": true,
          "internalType": "address",
          "name": "from",
          "type": "address"
        },
        {
          "indexed": true,
          "internalType": "address",
          "name": "to",
          "type": "address"
        },
        {
          "indexed": true,
          "internalType": "uint256",
          "name": "tokenId",
          "type": "uint256"
        }
      ],
      "name": "Transfer",
      "type": "event"
    },
    {
      "anonymous": false,
      "inputs": [
        {
          "indexed": false,
          "internalType": "address",
          "name": "user",
          "type": "address"
        },
        {
          "indexed": false,
          "internalType": "uint256",
          "name": "amount",
          "type": "uint256"
        }
      ],
      "name": "ValueReceived",
      "type": "event"
    },
    {
      "anonymous": false,
      "inputs": [
        {
          "indexed": false,
          "internalType": "address",
          "name": "addr",
          "type": "address"
        },
        {
          "indexed": false,
          "internalType": "bool",
          "name": "status",
          "type": "bool"
        }
      ],
      "name": "registered",
      "type": "event"
    },
    {
      "stateMutability": "payable",
      "type": "fallback",
      "payable": true
    },
    {
      "inputs": [],
      "name": "BreederNumber",
      "outputs": [
        {
          "internalType": "uint256",
          "name": "_value",
          "type": "uint256"
        }
      ],
      "stateMutability": "view",
      "type": "function",
      "constant": true
    },
    {
      "inputs": [],
      "name": "Owner",
      "outputs": [
        {
          "internalType": "address",
          "name": "",
          "type": "address"
        }
      ],
      "stateMutability": "view",
      "type": "function",
      "constant": true
    },
    {
      "inputs": [],
      "name": "_name",
      "outputs": [
        {
          "internalType": "string",
          "name": "",
          "type": "string"
        }
      ],
      "stateMutability": "view",
      "type": "function",
      "constant": true
    },
    {
      "inputs": [],
      "name": "_symbol",
      "outputs": [
        {
          "internalType": "string",
          "name": "",
          "type": "string"
        }
      ],
      "stateMutability": "view",
      "type": "function",
      "constant": true
    },
    {
      "inputs": [
        {
          "internalType": "address",
          "name": "to",
          "type": "address"
        },
        {
          "internalType": "uint256",
          "name": "tokenId",
          "type": "uint256"
        }
      ],
      "name": "approve",
      "outputs": [],
      "stateMutability": "nonpayable",
      "type": "function"
    },
    {
      "inputs": [
        {
          "internalType": "uint256",
          "name": "",
          "type": "uint256"
        }
      ],
      "name": "auctions",
      "outputs": [
        {
          "internalType": "uint256",
          "name": "number",
          "type": "uint256"
        },
        {
          "internalType": "bool",
          "name": "tokenId",
          "type": "bool"
        },
        {
          "internalType": "address payable",
          "name": "owner",
          "type": "address"
        },
        {
          "internalType": "uint256",
          "name": "start",
          "type": "uint256"
        },
        {
          "internalType": "uint256",
          "name": "nbdays",
          "type": "uint256"
        },
        {
          "internalType": "uint256",
          "name": "highestBid",
          "type": "uint256"
        },
        {
          "internalType": "address",
          "name": "highestBidder",
          "type": "address"
        },
        {
          "internalType": "uint256",
          "name": "canceled",
          "type": "uint256"
        },
        {
          "internalType": "bool",
          "name": "completed",
          "type": "bool"
        }
      ],
      "stateMutability": "view",
      "type": "function",
      "constant": true
    },
    {
      "inputs": [
        {
          "internalType": "address",
          "name": "owner",
          "type": "address"
        }
      ],
      "name": "balanceOf",
      "outputs": [
        {
          "internalType": "uint256",
          "name": "",
          "type": "uint256"
        }
      ],
      "stateMutability": "view",
      "type": "function",
      "constant": true
    },
    {
      "inputs": [],
      "name": "baseURI",
      "outputs": [
        {
          "internalType": "string",
          "name": "",
          "type": "string"
        }
      ],
      "stateMutability": "view",
      "type": "function",
      "constant": true
    },
    {
      "inputs": [
        {
          "internalType": "uint256",
          "name": "tokenId",
          "type": "uint256"
        }
      ],
      "name": "getApproved",
      "outputs": [
        {
          "internalType": "address",
          "name": "",
          "type": "address"
        }
      ],
      "stateMutability": "view",
      "type": "function",
      "constant": true
    },
    {
      "inputs": [
        {
          "internalType": "address",
          "name": "owner",
          "type": "address"
        },
        {
          "internalType": "address",
          "name": "operator",
          "type": "address"
        }
      ],
      "name": "isApprovedForAll",
      "outputs": [
        {
          "internalType": "bool",
          "name": "",
          "type": "bool"
        }
      ],
      "stateMutability": "view",
      "type": "function",
      "constant": true
    },
    {
      "inputs": [],
      "name": "name",
      "outputs": [
        {
          "internalType": "string",
          "name": "",
          "type": "string"
        }
      ],
      "stateMutability": "view",
      "type": "function",
      "constant": true
    },
    {
      "inputs": [],
      "name": "openAuction",
      "outputs": [
        {
          "internalType": "uint256",
          "name": "_value",
          "type": "uint256"
        }
      ],
      "stateMutability": "view",
      "type": "function",
      "constant": true
    },
    {
      "inputs": [
        {
          "internalType": "uint256",
          "name": "tokenId",
          "type": "uint256"
        }
      ],
      "name": "ownerOf",
      "outputs": [
        {
          "internalType": "address",
          "name": "",
          "type": "address"
        }
      ],
      "stateMutability": "view",
      "type": "function",
      "constant": true
    },
    {
      "inputs": [
        {
          "internalType": "address",
          "name": "from",
          "type": "address"
        },
        {
          "internalType": "address",
          "name": "to",
          "type": "address"
        },
        {
          "internalType": "uint256",
          "name": "tokenId",
          "type": "uint256"
        }
      ],
      "name": "safeTransferFrom",
      "outputs": [],
      "stateMutability": "nonpayable",
      "type": "function"
    },
    {
      "inputs": [
        {
          "internalType": "address",
          "name": "from",
          "type": "address"
        },
        {
          "internalType": "address",
          "name": "to",
          "type": "address"
        },
        {
          "internalType": "uint256",
          "name": "tokenId",
          "type": "uint256"
        },
        {
          "internalType": "bytes",
          "name": "_data",
          "type": "bytes"
        }
      ],
      "name": "safeTransferFrom",
      "outputs": [],
      "stateMutability": "nonpayable",
      "type": "function"
    },
    {
      "inputs": [
        {
          "internalType": "address",
          "name": "operator",
          "type": "address"
        },
        {
          "internalType": "bool",
          "name": "approved",
          "type": "bool"
        }
      ],
      "name": "setApprovalForAll",
      "outputs": [],
      "stateMutability": "nonpayable",
      "type": "function"
    },
    {
      "inputs": [
        {
          "internalType": "bytes4",
          "name": "interfaceId",
          "type": "bytes4"
        }
      ],
      "name": "supportsInterface",
      "outputs": [
        {
          "internalType": "bool",
          "name": "",
          "type": "bool"
        }
      ],
      "stateMutability": "view",
      "type": "function",
      "constant": true
    },
    {
      "inputs": [],
      "name": "symbol",
      "outputs": [
        {
          "internalType": "string",
          "name": "",
          "type": "string"
        }
      ],
      "stateMutability": "view",
      "type": "function",
      "constant": true
    },
    {
      "inputs": [
        {
          "internalType": "uint256",
          "name": "index",
          "type": "uint256"
        }
      ],
      "name": "tokenByIndex",
      "outputs": [
        {
          "internalType": "uint256",
          "name": "",
          "type": "uint256"
        }
      ],
      "stateMutability": "view",
      "type": "function",
      "constant": true
    },
    {
      "inputs": [
        {
          "internalType": "address",
          "name": "owner",
          "type": "address"
        },
        {
          "internalType": "uint256",
          "name": "index",
          "type": "uint256"
        }
      ],
      "name": "tokenOfOwnerByIndex",
      "outputs": [
        {
          "internalType": "uint256",
          "name": "",
          "type": "uint256"
        }
      ],
      "stateMutability": "view",
      "type": "function",
      "constant": true
    },
    {
      "inputs": [
        {
          "internalType": "uint256",
          "name": "tokenId",
          "type": "uint256"
        }
      ],
      "name": "tokenURI",
      "outputs": [
        {
          "internalType": "string",
          "name": "",
          "type": "string"
        }
      ],
      "stateMutability": "view",
      "type": "function",
      "constant": true
    },
    {
      "inputs": [],
      "name": "totalSupply",
      "outputs": [
        {
          "internalType": "uint256",
          "name": "",
          "type": "uint256"
        }
      ],
      "stateMutability": "view",
      "type": "function",
      "constant": true
    },
    {
      "inputs": [
        {
          "internalType": "address",
          "name": "from",
          "type": "address"
        },
        {
          "internalType": "address",
          "name": "to",
          "type": "address"
        },
        {
          "internalType": "uint256",
          "name": "tokenId",
          "type": "uint256"
        }
      ],
      "name": "transferFrom",
      "outputs": [],
      "stateMutability": "nonpayable",
      "type": "function"
    },
    {
      "inputs": [
        {
          "internalType": "address",
          "name": "_add",
          "type": "address"
        }
      ],
      "name": "registerBreeder",
      "outputs": [],
      "stateMutability": "nonpayable",
      "type": "function"
    },
    {
      "inputs": [
        {
          "internalType": "string",
          "name": "tokenURI",
          "type": "string"
        },
        {
          "internalType": "string",
          "name": "name",
          "type": "string"
        }
      ],
      "name": "declareAnimal",
      "outputs": [
        {
          "internalType": "uint256",
          "name": "",
          "type": "uint256"
        }
      ],
      "stateMutability": "nonpayable",
      "type": "function"
    },
    {
      "inputs": [
        {
          "internalType": "uint256",
          "name": "tokenId",
          "type": "uint256"
        }
      ],
      "name": "seeFeatures",
      "outputs": [
        {
          "internalType": "string",
          "name": "",
          "type": "string"
        },
        {
          "internalType": "uint256",
          "name": "",
          "type": "uint256"
        },
        {
          "internalType": "uint256",
          "name": "",
          "type": "uint256"
        },
        {
          "internalType": "uint256",
          "name": "",
          "type": "uint256"
        }
      ],
      "stateMutability": "view",
      "type": "function",
      "constant": true
    },
    {
      "inputs": [
        {
          "internalType": "uint256",
          "name": "tokenId_1",
          "type": "uint256"
        },
        {
          "internalType": "uint256",
          "name": "tokenId_2",
          "type": "uint256"
        },
        {
          "internalType": "string",
          "name": "tokenURI",
          "type": "string"
        },
        {
          "internalType": "string",
          "name": "new_name",
          "type": "string"
        }
      ],
      "name": "breedAnimal",
      "outputs": [
        {
          "internalType": "uint256",
          "name": "",
          "type": "uint256"
        }
      ],
      "stateMutability": "nonpayable",
      "type": "function"
    },
    {
      "inputs": [
        {
          "internalType": "uint256",
          "name": "token",
          "type": "uint256"
        }
      ],
      "name": "wantTokenNb",
      "outputs": [
        {
          "internalType": "bool",
          "name": "success",
          "type": "bool"
        }
      ],
      "stateMutability": "nonpayable",
      "type": "function"
    },
    {
      "inputs": [
        {
          "internalType": "uint256",
          "name": "tokenId",
          "type": "uint256"
        },
        {
          "internalType": "uint256",
          "name": "betstart",
          "type": "uint256"
        }
      ],
      "name": "createAuction",
      "outputs": [
        {
          "internalType": "bool",
          "name": "success",
          "type": "bool"
        }
      ],
      "stateMutability": "nonpayable",
      "type": "function"
    },
    {
      "inputs": [
        {
          "internalType": "uint256",
          "name": "tokenId",
          "type": "uint256"
        }
      ],
      "name": "claimByForce",
      "outputs": [
        {
          "internalType": "bool",
          "name": "",
          "type": "bool"
        }
      ],
      "stateMutability": "nonpayable",
      "type": "function"
    },
    {
      "inputs": [
        {
          "internalType": "uint256",
          "name": "tokenId",
          "type": "uint256"
        }
      ],
      "name": "claimAuction",
      "outputs": [
        {
          "internalType": "bool",
          "name": "success",
          "type": "bool"
        }
      ],
      "stateMutability": "nonpayable",
      "type": "function"
    },
    {
      "inputs": [
        {
          "internalType": "uint256",
          "name": "tokenId",
          "type": "uint256"
        }
      ],
      "name": "withdrawPayment",
      "outputs": [
        {
          "internalType": "bool",
          "name": "success",
          "type": "bool"
        }
      ],
      "stateMutability": "nonpayable",
      "type": "function"
    }
  ],
  "bytecode": "0x60806040526040518060400160405280600881526020017f4661726d4974656d000000000000000000000000000000000000000000000000815250600b908051906020019062000051929190620003d0565b506040518060400160405280600381526020017f46524d0000000000000000000000000000000000000000000000000000000000815250600c90805190602001906200009f929190620003d0565b50348015620000ad57600080fd5b50600b8054600181600116156101000203166002900480601f016020809104026020016040519081016040528092919081815260200182805460018160011615610100020316600290048015620001485780601f106200011c5761010080835404028352916020019162000148565b820191906000526020600020905b8154815290600101906020018083116200012a57829003601f168201915b5050505050600c8054600181600116156101000203166002900480601f016020809104026020016040519081016040528092919081815260200182805460018160011615610100020316600290048015620001e75780601f10620001bb57610100808354040283529160200191620001e7565b820191906000526020600020905b815481529060010190602001808311620001c957829003601f168201915b5050505050620002046301ffc9a760e01b620002c760201b60201c565b81600690805190602001906200021c929190620003d0565b50806007908051906020019062000235929190620003d0565b506200024e6380ac58cd60e01b620002c760201b60201c565b62000266635b5e139f60e01b620002c760201b60201c565b6200027e63780e9d6360e01b620002c760201b60201c565b505033600d60006101000a81548173ffffffffffffffffffffffffffffffffffffffff021916908373ffffffffffffffffffffffffffffffffffffffff1602179055506200047f565b63ffffffff60e01b817bffffffffffffffffffffffffffffffffffffffffffffffffffffffff1916141562000364576040517f08c379a000000000000000000000000000000000000000000000000000000000815260040180806020018281038252601c8152602001807f4552433136353a20696e76616c696420696e746572666163652069640000000081525060200191505060405180910390fd5b6001600080837bffffffffffffffffffffffffffffffffffffffffffffffffffffffff19167bffffffffffffffffffffffffffffffffffffffffffffffffffffffff1916815260200190815260200160002060006101000a81548160ff02191690831515021790555050565b828054600181600116156101000203166002900490600052602060002090601f016020900481019282601f106200041357805160ff191683800117855562000444565b8280016001018555821562000444579182015b828111156200044357825182559160200191906001019062000426565b5b50905062000453919062000457565b5090565b6200047c91905b80821115620004785760008160009055506001016200045e565b5090565b90565b615f42806200048f6000396000f3fe6080604052600436106101e75760003560e01c80636c0360eb11610102578063b4a99a4e11610095578063d28d885211610064578063d28d8852146111e6578063dbd3cd6214611276578063e985e9c5146112c9578063fe4f2f1914611352576101e8565b8063b4a99a4e14610f76578063b88d4fde14610fcd578063c87b56dd146110df578063d05ebf6914611193576101e8565b80639aafc6c9116100d15780639aafc6c914610cc3578063a22cb46514610d16578063b09f126614610d73578063b45bbab514610e03576101e8565b80636c0360eb14610a7557806370a0823114610b0557806391eb555614610b6a57806395d89b4114610c33576101e8565b806328d467d01161017a5780634f6ccce7116101495780634f6ccce7146107c1578063571a26a0146108105780635e14e48f146108f75780636352211e146109fa576101e8565b806328d467d01461065b5780632f745c591461068657806342842e0e146106f5578063476fd47414610770576101e8565b8063081812fc116101b6578063081812fc146104df578063095ea7b31461055a57806318160ddd146105b557806323b872dd146105e0576101e8565b80630121683f1461035557806301ffc9a7146103b257806304cb72f91461042457806306fdde031461044f576101e8565b5b610278601380548060200260200160405190810160405280929190818152602001828054801561026d57602002820191906000526020600020905b8160009054906101000a900473ffffffffffffffffffffffffffffffffffffffff1673ffffffffffffffffffffffffffffffffffffffff1681526020019060010190808311610223575b5050505050336113a5565b15610329576000601260003373ffffffffffffffffffffffffffffffffffffffff1673ffffffffffffffffffffffffffffffffffffffff1681526020019081526020016000205490506017600082815260200190815260200160002060010160009054906101000a900460ff16156102f9576102f38161141c565b50610323565b610322343373ffffffffffffffffffffffffffffffffffffffff16611b4890919063ffffffff16565b5b50610353565b610352343373ffffffffffffffffffffffffffffffffffffffff16611b4890919063ffffffff16565b5b005b34801561036157600080fd5b506103986004803603604081101561037857600080fd5b810190808035906020019092919080359060200190929190505050611c82565b604051808215151515815260200191505060405180910390f35b3480156103be57600080fd5b5061040a600480360360208110156103d557600080fd5b8101908080357bffffffffffffffffffffffffffffffffffffffffffffffffffffffff191690602001909291905050506121ad565b604051808215151515815260200191505060405180910390f35b34801561043057600080fd5b50610439612214565b6040518082815260200191505060405180910390f35b34801561045b57600080fd5b50610464612220565b6040518080602001828103825283818151815260200191508051906020019080838360005b838110156104a4578082015181840152602081019050610489565b50505050905090810190601f1680156104d15780820380516001836020036101000a031916815260200191505b509250505060405180910390f35b3480156104eb57600080fd5b506105186004803603602081101561050257600080fd5b81019080803590602001909291905050506122c2565b604051808273ffffffffffffffffffffffffffffffffffffffff1673ffffffffffffffffffffffffffffffffffffffff16815260200191505060405180910390f35b34801561056657600080fd5b506105b36004803603604081101561057d57600080fd5b81019080803573ffffffffffffffffffffffffffffffffffffffff1690602001909291908035906020019092919050505061235d565b005b3480156105c157600080fd5b506105ca6124a1565b6040518082815260200191505060405180910390f35b3480156105ec57600080fd5b506106596004803603606081101561060357600080fd5b81019080803573ffffffffffffffffffffffffffffffffffffffff169060200190929190803573ffffffffffffffffffffffffffffffffffffffff169060200190929190803590602001909291905050506124b2565b005b34801561066757600080fd5b50610670612528565b6040518082815260200191505060405180910390f35b34801561069257600080fd5b506106df600480360360408110156106a957600080fd5b81019080803573ffffffffffffffffffffffffffffffffffffffff16906020019092919080359060200190929190505050612534565b6040518082815260200191505060405180910390f35b34801561070157600080fd5b5061076e6004803603606081101561071857600080fd5b81019080803573ffffffffffffffffffffffffffffffffffffffff169060200190929190803573ffffffffffffffffffffffffffffffffffffffff1690602001909291908035906020019092919050505061258f565b005b34801561077c57600080fd5b506107bf6004803603602081101561079357600080fd5b81019080803573ffffffffffffffffffffffffffffffffffffffff1690602001909291905050506125af565b005b3480156107cd57600080fd5b506107fa600480360360208110156107e457600080fd5b810190808035906020019092919050505061279e565b6040518082815260200191505060405180910390f35b34801561081c57600080fd5b506108496004803603602081101561083357600080fd5b81019080803590602001909291905050506127c1565b604051808a8152602001891515151581526020018873ffffffffffffffffffffffffffffffffffffffff1673ffffffffffffffffffffffffffffffffffffffff1681526020018781526020018681526020018581526020018473ffffffffffffffffffffffffffffffffffffffff1673ffffffffffffffffffffffffffffffffffffffff16815260200183815260200182151515158152602001995050505050505050505060405180910390f35b34801561090357600080fd5b506109e46004803603608081101561091a57600080fd5b8101908080359060200190929190803590602001909291908035906020019064010000000081111561094b57600080fd5b82018360208201111561095d57600080fd5b8035906020019184600183028401116401000000008311171561097f57600080fd5b9091929391929390803590602001906401000000008111156109a057600080fd5b8201836020820111156109b257600080fd5b803590602001918460018302840111640100000000831117156109d457600080fd5b9091929391929390505050612876565b6040518082815260200191505060405180910390f35b348015610a0657600080fd5b50610a3360048036036020811015610a1d57600080fd5b8101908080359060200190929190505050612c00565b604051808273ffffffffffffffffffffffffffffffffffffffff1673ffffffffffffffffffffffffffffffffffffffff16815260200191505060405180910390f35b348015610a8157600080fd5b50610a8a612c37565b6040518080602001828103825283818151815260200191508051906020019080838360005b83811015610aca578082015181840152602081019050610aaf565b50505050905090810190601f168015610af75780820380516001836020036101000a031916815260200191505b509250505060405180910390f35b348015610b1157600080fd5b50610b5460048036036020811015610b2857600080fd5b81019080803573ffffffffffffffffffffffffffffffffffffffff169060200190929190505050612cd9565b6040518082815260200191505060405180910390f35b348015610b7657600080fd5b50610ba360048036036020811015610b8d57600080fd5b8101908080359060200190929190505050612dae565b6040518080602001858152602001848152602001838152602001828103825286818151815260200191508051906020019080838360005b83811015610bf5578082015181840152602081019050610bda565b50505050905090810190601f168015610c225780820380516001836020036101000a031916815260200191505b509550505050505060405180910390f35b348015610c3f57600080fd5b50610c48612ebb565b6040518080602001828103825283818151815260200191508051906020019080838360005b83811015610c88578082015181840152602081019050610c6d565b50505050905090810190601f168015610cb55780820380516001836020036101000a031916815260200191505b509250505060405180910390f35b348015610ccf57600080fd5b50610cfc60048036036020811015610ce657600080fd5b8101908080359060200190929190505050612f5d565b604051808215151515815260200191505060405180910390f35b348015610d2257600080fd5b50610d7160048036036040811015610d3957600080fd5b81019080803573ffffffffffffffffffffffffffffffffffffffff1690602001909291908035151590602001909291905050506133b3565b005b348015610d7f57600080fd5b50610d8861356b565b6040518080602001828103825283818151815260200191508051906020019080838360005b83811015610dc8578082015181840152602081019050610dad565b50505050905090810190601f168015610df55780820380516001836020036101000a031916815260200191505b509250505060405180910390f35b348015610e0f57600080fd5b50610f6060048036036040811015610e2657600080fd5b8101908080359060200190640100000000811115610e4357600080fd5b820183602082011115610e5557600080fd5b80359060200191846001830284011164010000000083111715610e7757600080fd5b91908080601f016020809104026020016040519081016040528093929190818152602001838380828437600081840152601f19601f82011690508083019250505050505050919291929080359060200190640100000000811115610eda57600080fd5b820183602082011115610eec57600080fd5b80359060200191846001830284011164010000000083111715610f0e57600080fd5b91908080601f016020809104026020016040519081016040528093929190818152602001838380828437600081840152601f19601f820116905080830192505050505050509192919290505050613609565b6040518082815260200191505060405180910390f35b348015610f8257600080fd5b50610f8b61378c565b604051808273ffffffffffffffffffffffffffffffffffffffff1673ffffffffffffffffffffffffffffffffffffffff16815260200191505060405180910390f35b348015610fd957600080fd5b506110dd60048036036080811015610ff057600080fd5b81019080803573ffffffffffffffffffffffffffffffffffffffff169060200190929190803573ffffffffffffffffffffffffffffffffffffffff169060200190929190803590602001909291908035906020019064010000000081111561105757600080fd5b82018360208201111561106957600080fd5b8035906020019184600183028401116401000000008311171561108b57600080fd5b91908080601f016020809104026020016040519081016040528093929190818152602001838380828437600081840152601f19601f8201169050808301925050505050505091929192905050506137b2565b005b3480156110eb57600080fd5b506111186004803603602081101561110257600080fd5b810190808035906020019092919050505061382a565b6040518080602001828103825283818151815260200191508051906020019080838360005b8381101561115857808201518184015260208101905061113d565b50505050905090810190601f1680156111855780820380516001836020036101000a031916815260200191505b509250505060405180910390f35b34801561119f57600080fd5b506111cc600480360360208110156111b657600080fd5b8101908080359060200190929190505050613afb565b604051808215151515815260200191505060405180910390f35b3480156111f257600080fd5b506111fb613c0d565b6040518080602001828103825283818151815260200191508051906020019080838360005b8381101561123b578082015181840152602081019050611220565b50505050905090810190601f1680156112685780820380516001836020036101000a031916815260200191505b509250505060405180910390f35b34801561128257600080fd5b506112af6004803603602081101561129957600080fd5b8101908080359060200190929190505050613cab565b604051808215151515815260200191505060405180910390f35b3480156112d557600080fd5b50611338600480360360408110156112ec57600080fd5b81019080803573ffffffffffffffffffffffffffffffffffffffff169060200190929190803573ffffffffffffffffffffffffffffffffffffffff16906020019092919050505061435c565b604051808215151515815260200191505060405180910390f35b34801561135e57600080fd5b5061138b6004803603602081101561137557600080fd5b81019080803590602001909291905050506143f0565b604051808215151515815260200191505060405180910390f35b600080600090505b8351811015611414578273ffffffffffffffffffffffffffffffffffffffff168482815181106113d957fe5b602002602001015173ffffffffffffffffffffffffffffffffffffffff161415611407576001915050611416565b80806001019150506113ad565b505b92915050565b6000600e60003373ffffffffffffffffffffffffffffffffffffffff1673ffffffffffffffffffffffffffffffffffffffff16815260200190815260200160002060009054906101000a900460ff1661147457600080fd5b6017600083815260200190815260200160002060080154421115611500576040517f08c379a00000000000000000000000000000000000000000000000000000000081526004018080602001828103825260038152602001807f656e64000000000000000000000000000000000000000000000000000000000081525060200191505060405180910390fd5b6017600083815260200190815260200160002060090160009054906101000a900460ff1615611597576040517f08c379a000000000000000000000000000000000000000000000000000000000815260040180806020018281038252600a8152602001807f72657761726420656e640000000000000000000000000000000000000000000081525060200191505060405180910390fd5b6000341161160d576040517f08c379a000000000000000000000000000000000000000000000000000000000815260040180806020018281038252600f8152602001807f73656e6420736f6d65206574686572000000000000000000000000000000000081525060200191505060405180910390fd5b6017600083815260200190815260200160002060010160009054906101000a900460ff166116a3576040517f08c379a000000000000000000000000000000000000000000000000000000000815260040180806020018281038252600a8152602001807f6f6e2061756374696f6e0000000000000000000000000000000000000000000081525060200191505060405180910390fd5b601760008381526020019081526020016000206002015434116116c557600080fd5b60006017600084815260200190815260200160002060060154905060008090506117896017600086815260200190815260200160002060050180548060200260200160405190810160405280929190818152602001828054801561177e57602002820191906000526020600020905b8160009054906101000a900473ffffffffffffffffffffffffffffffffffffffff1673ffffffffffffffffffffffffffffffffffffffff1681526020019060010190808311611734575b5050505050336113a5565b156118c9576000346017600087815260200190815260200160002060040160003373ffffffffffffffffffffffffffffffffffffffff1673ffffffffffffffffffffffffffffffffffffffff16815260200190815260200160002054019050806017600087815260200190815260200160002060040160003373ffffffffffffffffffffffffffffffffffffffff1673ffffffffffffffffffffffffffffffffffffffff1681526020019081526020016000208190555061184a818461458e565b156118c357806017600087815260200190815260200160002060060181905550336017600087815260200190815260200160002060070160006101000a81548173ffffffffffffffffffffffffffffffffffffffff021916908373ffffffffffffffffffffffffffffffffffffffff1602179055508091505b50611a4a565b60176000858152602001908152602001600020600501339080600181540180825580915050600190039060005260206000200160009091909190916101000a81548173ffffffffffffffffffffffffffffffffffffffff021916908373ffffffffffffffffffffffffffffffffffffffff160217905550346017600086815260200190815260200160002060040160003373ffffffffffffffffffffffffffffffffffffffff1673ffffffffffffffffffffffffffffffffffffffff168152602001908152602001600020819055506119a2348361458e565b15611a1f57346017600086815260200190815260200160002060060181905550336017600086815260200190815260200160002060070160006101000a81548173ffffffffffffffffffffffffffffffffffffffff021916908373ffffffffffffffffffffffffffffffffffffffff160217905550349050611a49565b611a48343373ffffffffffffffffffffffffffffffffffffffff16611b4890919063ffffffff16565b5b5b7f7f863cab1b412077be133ef69af7df0e6aca4c67ff7d89db843d601f124a025d33826017600088815260200190815260200160002060070160009054906101000a900473ffffffffffffffffffffffffffffffffffffffff166017600089815260200190815260200160002060060154604051808573ffffffffffffffffffffffffffffffffffffffff1673ffffffffffffffffffffffffffffffffffffffff1681526020018481526020018373ffffffffffffffffffffffffffffffffffffffff1673ffffffffffffffffffffffffffffffffffffffff16815260200182815260200194505050505060405180910390a1600192505050919050565b80471015611bbe576040517f08c379a000000000000000000000000000000000000000000000000000000000815260040180806020018281038252601d8152602001807f416464726573733a20696e73756666696369656e742062616c616e636500000081525060200191505060405180910390fd5b60008273ffffffffffffffffffffffffffffffffffffffff168260405180600001905060006040518083038185875af1925050503d8060008114611c1e576040519150601f19603f3d011682016040523d82523d6000602084013e611c23565b606091505b5050905080611c7d576040517f08c379a000000000000000000000000000000000000000000000000000000000815260040180806020018281038252603a815260200180615cd2603a913960400191505060405180910390fd5b505050565b6000600e60003373ffffffffffffffffffffffffffffffffffffffff1673ffffffffffffffffffffffffffffffffffffffff16815260200190815260200160002060009054906101000a900460ff16611cda57600080fd5b611ce433846145ab565b611d56576040517f08c379a00000000000000000000000000000000000000000000000000000000081526004018080602001828103825260098152602001807f6e6f7420796f757273000000000000000000000000000000000000000000000081525060200191505060405180910390fd5b6017600084815260200190815260200160002060010160009054906101000a900460ff1615611ded576040517f08c379a00000000000000000000000000000000000000000000000000000000081526004018080602001828103825260128152602001807f616c7265616479206f6e2061756374696f6e000000000000000000000000000081525060200191505060405180910390fd5b611df7601461469f565b6000611e0360146146b5565b90506060600060029050600062015180820242019050600060019050611e2761599b565b6040518061014001604052808781526020016001151581526020013373ffffffffffffffffffffffffffffffffffffffff168152602001838a02815260200185815260200186815260200160008152602001600073ffffffffffffffffffffffffffffffffffffffff16815260200184815260200160001515815250905080601760008b81526020019081526020016000206000820151816000015560208201518160010160006101000a81548160ff02191690831515021790555060408201518160010160016101000a81548173ffffffffffffffffffffffffffffffffffffffff021916908373ffffffffffffffffffffffffffffffffffffffff160217905550606082015181600201556080820151816003015560a0820151816005019080519060200190611f5a929190615a1e565b5060c0820151816006015560e08201518160070160006101000a81548173ffffffffffffffffffffffffffffffffffffffff021916908373ffffffffffffffffffffffffffffffffffffffff16021790555061010082015181600801556101208201518160090160006101000a81548160ff021916908315150217905550905050611fe5601561469f565b60168190806001815401808255809150506001900390600052602060002090600a02016000909190919091506000820151816000015560208201518160010160006101000a81548160ff02191690831515021790555060408201518160010160016101000a81548173ffffffffffffffffffffffffffffffffffffffff021916908373ffffffffffffffffffffffffffffffffffffffff160217905550606082015181600201556080820151816003015560a08201518160050190805190602001906120b2929190615a1e565b5060c0820151816006015560e08201518160070160006101000a81548173ffffffffffffffffffffffffffffffffffffffff021916908373ffffffffffffffffffffffffffffffffffffffff16021790555061010082015181600801556101208201518160090160006101000a81548160ff02191690831515021790555050507f3249a06bd478adf780bb7930214ad005e9cfa517d63221c0b77f27199d1a58b33387604051808373ffffffffffffffffffffffffffffffffffffffff1673ffffffffffffffffffffffffffffffffffffffff1681526020018281526020019250505060405180910390a16001965050505050505092915050565b6000806000837bffffffffffffffffffffffffffffffffffffffffffffffffffffffff19167bffffffffffffffffffffffffffffffffffffffffffffffffffffffff1916815260200190815260200160002060009054906101000a900460ff169050919050565b60158060000154905081565b606060068054600181600116156101000203166002900480601f0160208091040260200160405190810160405280929190818152602001828054600181600116156101000203166002900480156122b85780601f1061228d576101008083540402835291602001916122b8565b820191906000526020600020905b81548152906001019060200180831161229b57829003601f168201915b5050505050905090565b60006122cd826146c3565b612322576040517f08c379a000000000000000000000000000000000000000000000000000000000815260040180806020018281038252602c815260200180615e0b602c913960400191505060405180910390fd5b6004600083815260200190815260200160002060009054906101000a900473ffffffffffffffffffffffffffffffffffffffff169050919050565b600061236882612c00565b90508073ffffffffffffffffffffffffffffffffffffffff168373ffffffffffffffffffffffffffffffffffffffff1614156123ef576040517f08c379a0000000000000000000000000000000000000000000000000000000008152600401808060200182810382526021815260200180615ebb6021913960400191505060405180910390fd5b8073ffffffffffffffffffffffffffffffffffffffff1661240e6146e0565b73ffffffffffffffffffffffffffffffffffffffff16148061243d575061243c816124376146e0565b61435c565b5b612492576040517f08c379a0000000000000000000000000000000000000000000000000000000008152600401808060200182810382526038815260200180615d5e6038913960400191505060405180910390fd5b61249c83836146e8565b505050565b60006124ad60026147a1565b905090565b6124c36124bd6146e0565b826145ab565b612518576040517f08c379a0000000000000000000000000000000000000000000000000000000008152600401808060200182810382526031815260200180615edc6031913960400191505060405180910390fd5b6125238383836147b6565b505050565b600f8060000154905081565b600061258782600160008673ffffffffffffffffffffffffffffffffffffffff1673ffffffffffffffffffffffffffffffffffffffff1681526020019081526020016000206149f990919063ffffffff16565b905092915050565b6125aa838383604051806020016040528060008152506137b2565b505050565b3373ffffffffffffffffffffffffffffffffffffffff16600d60009054906101000a900473ffffffffffffffffffffffffffffffffffffffff1673ffffffffffffffffffffffffffffffffffffffff161461260957600080fd5b600e60008273ffffffffffffffffffffffffffffffffffffffff1673ffffffffffffffffffffffffffffffffffffffff16815260200190815260200160002060009054906101000a900460ff16156126c9576040517f08c379a000000000000000000000000000000000000000000000000000000000815260040180806020018281038252600e8152602001807f6e6f74207375627363726962652e00000000000000000000000000000000000081525060200191505060405180910390fd5b6001600e60008373ffffffffffffffffffffffffffffffffffffffff1673ffffffffffffffffffffffffffffffffffffffff16815260200190815260200160002060006101000a81548160ff02191690831515021790555061272b600f61469f565b7fd2443b4f2e3183c42db8c9d6959f19efd8dd179604c0b0b0c7500df86200f90a816001604051808373ffffffffffffffffffffffffffffffffffffffff1673ffffffffffffffffffffffffffffffffffffffff168152602001821515151581526020019250505060405180910390a150565b6000806127b5836002614a1390919063ffffffff16565b50905080915050919050565b601681815481106127ce57fe5b90600052602060002090600a02016000915090508060000154908060010160009054906101000a900460ff16908060010160019054906101000a900473ffffffffffffffffffffffffffffffffffffffff16908060020154908060030154908060060154908060070160009054906101000a900473ffffffffffffffffffffffffffffffffffffffff16908060080154908060090160009054906101000a900460ff16905089565b6000600e60003373ffffffffffffffffffffffffffffffffffffffff1673ffffffffffffffffffffffffffffffffffffffff16815260200190815260200160002060009054906101000a900460ff166128ce57600080fd5b6128d833886145ab565b61294a576040517f08c379a00000000000000000000000000000000000000000000000000000000081526004018080602001828103825260098152602001807f6e6f7420796f757273000000000000000000000000000000000000000000000081525060200191505060405180910390fd5b61295433876145ab565b6129c6576040517f08c379a00000000000000000000000000000000000000000000000000000000081526004018080602001828103825260098152602001807f6e6f7420796f757273000000000000000000000000000000000000000000000081525060200191505060405180910390fd5b6129ce615aa8565b604051806080016040528085858080601f016020809104026020016040519081016040528093929190818152602001838380828437600081840152601f19601f8201169050808301925050505050505081526020016002601160008b815260200190815260200160002060010154601160008d8152602001908152602001600020600101540181612a5b57fe5b0481526020016002601160008b815260200190815260200160002060020154601160008d8152602001908152602001600020600201540181612a9957fe5b0481526020016002601160008b815260200190815260200160002060030154601160008d8152602001908152602001600020600301540181612ad757fe5b048152509050612ae7600a61469f565b6000612af3600a6146b5565b9050612aff3382614a42565b612b4d8188888080601f016020809104026020016040519081016040528093929190818152602001838380828437600081840152601f19601f82011690508083019250505050505050614c36565b336010600083815260200190815260200160002060006101000a81548173ffffffffffffffffffffffffffffffffffffffff021916908373ffffffffffffffffffffffffffffffffffffffff16021790555081601160008381526020019081526020016000206000820151816000019080519060200190612bcf929190615ad0565b5060208201518160010155604082015181600201556060820151816003015590505080925050509695505050505050565b6000612c3082604051806060016040528060298152602001615dc0602991396002614cc09092919063ffffffff16565b9050919050565b606060098054600181600116156101000203166002900480601f016020809104026020016040519081016040528092919081815260200182805460018160011615610100020316600290048015612ccf5780601f10612ca457610100808354040283529160200191612ccf565b820191906000526020600020905b815481529060010190602001808311612cb257829003601f168201915b5050505050905090565b60008073ffffffffffffffffffffffffffffffffffffffff168273ffffffffffffffffffffffffffffffffffffffff161415612d60576040517f08c379a000000000000000000000000000000000000000000000000000000000815260040180806020018281038252602a815260200180615d96602a913960400191505060405180910390fd5b612da7600160008473ffffffffffffffffffffffffffffffffffffffff1673ffffffffffffffffffffffffffffffffffffffff168152602001908152602001600020614cdf565b9050919050565b6060600080600060116000868152602001908152602001600020600001601160008781526020019081526020016000206001015460116000888152602001908152602001600020600201546011600089815260200190815260200160002060030154838054600181600116156101000203166002900480601f016020809104026020016040519081016040528092919081815260200182805460018160011615610100020316600290048015612ea55780601f10612e7a57610100808354040283529160200191612ea5565b820191906000526020600020905b815481529060010190602001808311612e8857829003601f168201915b5050505050935093509350935093509193509193565b606060078054600181600116156101000203166002900480601f016020809104026020016040519081016040528092919081815260200182805460018160011615610100020316600290048015612f535780601f10612f2857610100808354040283529160200191612f53565b820191906000526020600020905b815481529060010190602001808311612f3657829003601f168201915b5050505050905090565b6000600e60003373ffffffffffffffffffffffffffffffffffffffff1673ffffffffffffffffffffffffffffffffffffffff16815260200190815260200160002060009054906101000a900460ff16612fb557600080fd5b6017600083815260200190815260200160002060080154421015613041576040517f08c379a00000000000000000000000000000000000000000000000000000000081526004018080602001828103825260098152602001807f6e6f7420656e646564000000000000000000000000000000000000000000000081525060200191505060405180910390fd5b6017600083815260200190815260200160002060090160009054906101000a900460ff16156130d8576040517f08c379a000000000000000000000000000000000000000000000000000000000815260040180806020018281038252600c8152602001807f72657761726420656e646564000000000000000000000000000000000000000081525060200191505060405180910390fd5b3373ffffffffffffffffffffffffffffffffffffffff166017600084815260200190815260200160002060070160009054906101000a900473ffffffffffffffffffffffffffffffffffffffff1673ffffffffffffffffffffffffffffffffffffffff161461314657600080fd5b61315033836146e8565b6131916017600084815260200190815260200160002060010160019054906101000a900473ffffffffffffffffffffffffffffffffffffffff1633846124b2565b60016017600084815260200190815260200160002060090160006101000a81548160ff02191690831515021790555060006017600084815260200190815260200160002060060154905061323a816017600086815260200190815260200160002060010160019054906101000a900473ffffffffffffffffffffffffffffffffffffffff1673ffffffffffffffffffffffffffffffffffffffff16611b4890919063ffffffff16565b601260003373ffffffffffffffffffffffffffffffffffffffff1673ffffffffffffffffffffffffffffffffffffffff168152602001908152602001600020600090556017600084815260200190815260200160002060040160003373ffffffffffffffffffffffffffffffffffffffff1673ffffffffffffffffffffffffffffffffffffffff168152602001908152602001600020600090557ff7a40077ff7a04c7e61f6f26fb13774259ddf1b6bce9ecf26a8276cdd39926836017600085815260200190815260200160002060010160019054906101000a900473ffffffffffffffffffffffffffffffffffffffff163385604051808473ffffffffffffffffffffffffffffffffffffffff1673ffffffffffffffffffffffffffffffffffffffff1681526020018373ffffffffffffffffffffffffffffffffffffffff1673ffffffffffffffffffffffffffffffffffffffff168152602001828152602001935050505060405180910390a16001915050919050565b6133bb6146e0565b73ffffffffffffffffffffffffffffffffffffffff168273ffffffffffffffffffffffffffffffffffffffff16141561345c576040517f08c379a00000000000000000000000000000000000000000000000000000000081526004018080602001828103825260198152602001807f4552433732313a20617070726f766520746f2063616c6c65720000000000000081525060200191505060405180910390fd5b80600560006134696146e0565b73ffffffffffffffffffffffffffffffffffffffff1673ffffffffffffffffffffffffffffffffffffffff16815260200190815260200160002060008473ffffffffffffffffffffffffffffffffffffffff1673ffffffffffffffffffffffffffffffffffffffff16815260200190815260200160002060006101000a81548160ff0219169083151502179055508173ffffffffffffffffffffffffffffffffffffffff166135166146e0565b73ffffffffffffffffffffffffffffffffffffffff167f17307eab39ab6107e8899845ad3d59bd9653f200f220920489ca2b5937696c3183604051808215151515815260200191505060405180910390a35050565b600c8054600181600116156101000203166002900480601f0160208091040260200160405190810160405280929190818152602001828054600181600116156101000203166002900480156136015780601f106135d657610100808354040283529160200191613601565b820191906000526020600020905b8154815290600101906020018083116135e457829003601f168201915b505050505081565b6000600e60003373ffffffffffffffffffffffffffffffffffffffff1673ffffffffffffffffffffffffffffffffffffffff16815260200190815260200160002060009054906101000a900460ff1661366157600080fd5b613669615aa8565b6040518060800160405280848152602001600a613684614cf4565b8161368b57fe5b048152602001600561369b614cf4565b01815260200160176136ab614cf4565b0381525090506136bb600a61469f565b60006136c7600a6146b5565b90506136d33382614a42565b6136dd8186614c36565b336010600083815260200190815260200160002060006101000a81548173ffffffffffffffffffffffffffffffffffffffff021916908373ffffffffffffffffffffffffffffffffffffffff1602179055508160116000838152602001908152602001600020600082015181600001908051906020019061375f929190615ad0565b50602082015181600101556040820151816002015560608201518160030155905050809250505092915050565b600d60009054906101000a900473ffffffffffffffffffffffffffffffffffffffff1681565b6137c36137bd6146e0565b836145ab565b613818576040517f08c379a0000000000000000000000000000000000000000000000000000000008152600401808060200182810382526031815260200180615edc6031913960400191505060405180910390fd5b61382484848484614d38565b50505050565b6060613835826146c3565b61388a576040517f08c379a000000000000000000000000000000000000000000000000000000000815260040180806020018281038252602f815260200180615e8c602f913960400191505060405180910390fd5b6060600860008481526020019081526020016000208054600181600116156101000203166002900480601f0160208091040260200160405190810160405280929190818152602001828054600181600116156101000203166002900480156139335780601f1061390857610100808354040283529160200191613933565b820191906000526020600020905b81548152906001019060200180831161391657829003601f168201915b505050505090506060613944612c37565b905060008151141561395a578192505050613af6565b600082511115613a2b5780826040516020018083805190602001908083835b6020831061399c5780518252602082019150602081019050602083039250613979565b6001836020036101000a03801982511681845116808217855250505050505090500182805190602001908083835b602083106139ed57805182526020820191506020810190506020830392506139ca565b6001836020036101000a0380198251168184511680821785525050505050509050019250505060405160208183030381529060405292505050613af6565b80613a3585614daa565b6040516020018083805190602001908083835b60208310613a6b5780518252602082019150602081019050602083039250613a48565b6001836020036101000a03801982511681845116808217855250505050505090500182805190602001908083835b60208310613abc5780518252602082019150602081019050602083039250613a99565b6001836020036101000a03801982511681845116808217855250505050505090500192505050604051602081830303815290604052925050505b919050565b60003373ffffffffffffffffffffffffffffffffffffffff16600d60009054906101000a900473ffffffffffffffffffffffffffffffffffffffff1673ffffffffffffffffffffffffffffffffffffffff1614613b5757600080fd5b6017600083815260200190815260200160002060010160009054906101000a900460ff16613bed576040517f08c379a000000000000000000000000000000000000000000000000000000000815260040180806020018281038252600a8152602001807f6f6e2061756374696f6e0000000000000000000000000000000000000000000081525060200191505060405180910390fd5b426017600084815260200190815260200160002060080181905550919050565b600b8054600181600116156101000203166002900480601f016020809104026020016040519081016040528092919081815260200182805460018160011615610100020316600290048015613ca35780601f10613c7857610100808354040283529160200191613ca3565b820191906000526020600020905b815481529060010190602001808311613c8657829003601f168201915b505050505081565b6000600e60003373ffffffffffffffffffffffffffffffffffffffff1673ffffffffffffffffffffffffffffffffffffffff16815260200190815260200160002060009054906101000a900460ff16613d0357600080fd5b6017600083815260200190815260200160002060090160009054906101000a900460ff16613d99576040517f08c379a00000000000000000000000000000000000000000000000000000000081526004018080602001828103825260108152602001807f726577617264206e6f7420656e6465640000000000000000000000000000000081525060200191505060405180910390fd5b613e3d60176000848152602001908152602001600020600501805480602002602001604051908101604052809291908181526020018280548015613e3257602002820191906000526020600020905b8160009054906101000a900473ffffffffffffffffffffffffffffffffffffffff1673ffffffffffffffffffffffffffffffffffffffff1681526020019060010190808311613de8575b5050505050336113a5565b613e4657600080fd5b60006017600084815260200190815260200160002060040160003373ffffffffffffffffffffffffffffffffffffffff1673ffffffffffffffffffffffffffffffffffffffff168152602001908152602001600020549050613ec7813373ffffffffffffffffffffffffffffffffffffffff16611b4890919063ffffffff16565b60006017600085815260200190815260200160002060010160006101000a81548160ff0219169083151502179055506017600084815260200190815260200160002060040160003373ffffffffffffffffffffffffffffffffffffffff1673ffffffffffffffffffffffffffffffffffffffff16815260200190815260200160002060009055601260003373ffffffffffffffffffffffffffffffffffffffff1673ffffffffffffffffffffffffffffffffffffffff16815260200190815260200160002060009055600060176000858152602001908152602001600020600501805490509050600080600090505b60018303811015614051573373ffffffffffffffffffffffffffffffffffffffff16601760008881526020019081526020016000206005018281548110613ff957fe5b9060005260206000200160009054906101000a900473ffffffffffffffffffffffffffffffffffffffff1673ffffffffffffffffffffffffffffffffffffffff161415614044578091505b8080600101915050613fb6565b5060008190505b600183038110156141285760176000878152602001908152602001600020600501600182018154811061408757fe5b9060005260206000200160009054906101000a900473ffffffffffffffffffffffffffffffffffffffff166017600088815260200190815260200160002060050182815481106140d357fe5b9060005260206000200160006101000a81548173ffffffffffffffffffffffffffffffffffffffff021916908373ffffffffffffffffffffffffffffffffffffffff1602179055508080600101915050614058565b5060176000868152602001908152602001600020600501600183038154811061414d57fe5b9060005260206000200160006101000a81549073ffffffffffffffffffffffffffffffffffffffff02191690556000601760008781526020019081526020016000206005018054905014156143505760166001601760008881526020019081526020016000206000015403815481106141c257fe5b90600052602060002090600a02016000808201600090556001820160006101000a81549060ff02191690556001820160016101000a81549073ffffffffffffffffffffffffffffffffffffffff0219169055600282016000905560038201600090556005820160006142349190615b50565b60068201600090556007820160006101000a81549073ffffffffffffffffffffffffffffffffffffffff021916905560088201600090556009820160006101000a81549060ff02191690555050601760008681526020019081526020016000206000808201600090556001820160006101000a81549060ff02191690556001820160016101000a81549073ffffffffffffffffffffffffffffffffffffffff0219169055600282016000905560038201600090556005820160006142f89190615b50565b60068201600090556007820160006101000a81549073ffffffffffffffffffffffffffffffffffffffff021916905560088201600090556009820160006101000a81549060ff0219169055505061434f6015614eda565b5b60019350505050919050565b6000600560008473ffffffffffffffffffffffffffffffffffffffff1673ffffffffffffffffffffffffffffffffffffffff16815260200190815260200160002060008373ffffffffffffffffffffffffffffffffffffffff1673ffffffffffffffffffffffffffffffffffffffff16815260200190815260200160002060009054906101000a900460ff16905092915050565b6000600e60003373ffffffffffffffffffffffffffffffffffffffff1673ffffffffffffffffffffffffffffffffffffffff16815260200190815260200160002060009054906101000a900460ff1661444857600080fd5b6017600083815260200190815260200160002060010160009054906101000a900460ff166144de576040517f08c379a000000000000000000000000000000000000000000000000000000000815260040180806020018281038252600e8152602001807f6e6f74206f6e2061756374696f6e00000000000000000000000000000000000081525060200191505060405180910390fd5b81601260003373ffffffffffffffffffffffffffffffffffffffff1673ffffffffffffffffffffffffffffffffffffffff168152602001908152602001600020819055506013339080600181540180825580915050600190039060005260206000200160009091909190916101000a81548173ffffffffffffffffffffffffffffffffffffffff021916908373ffffffffffffffffffffffffffffffffffffffff16021790555060019050919050565b60008183116145a057600090506145a5565b600190505b92915050565b60006145b6826146c3565b61460b576040517f08c379a000000000000000000000000000000000000000000000000000000000815260040180806020018281038252602c815260200180615d32602c913960400191505060405180910390fd5b600061461683612c00565b90508073ffffffffffffffffffffffffffffffffffffffff168473ffffffffffffffffffffffffffffffffffffffff16148061468557508373ffffffffffffffffffffffffffffffffffffffff1661466d846122c2565b73ffffffffffffffffffffffffffffffffffffffff16145b806146965750614695818561435c565b5b91505092915050565b6001816000016000828254019250508190555050565b600081600001549050919050565b60006146d9826002614efd90919063ffffffff16565b9050919050565b600033905090565b816004600083815260200190815260200160002060006101000a81548173ffffffffffffffffffffffffffffffffffffffff021916908373ffffffffffffffffffffffffffffffffffffffff160217905550808273ffffffffffffffffffffffffffffffffffffffff1661475b83612c00565b73ffffffffffffffffffffffffffffffffffffffff167f8c5be1e5ebec7d5bd14f71427d1e84f3dd0314c0f7b2291e5b200ac8c7c3b92560405160405180910390a45050565b60006147af82600001614f17565b9050919050565b8273ffffffffffffffffffffffffffffffffffffffff166147d682612c00565b73ffffffffffffffffffffffffffffffffffffffff1614614842576040517f08c379a0000000000000000000000000000000000000000000000000000000008152600401808060200182810382526029815260200180615e636029913960400191505060405180910390fd5b600073ffffffffffffffffffffffffffffffffffffffff168273ffffffffffffffffffffffffffffffffffffffff1614156148c8576040517f08c379a0000000000000000000000000000000000000000000000000000000008152600401808060200182810382526024815260200180615cae6024913960400191505060405180910390fd5b6148d3838383614f28565b6148de6000826146e8565b61492f81600160008673ffffffffffffffffffffffffffffffffffffffff1673ffffffffffffffffffffffffffffffffffffffff168152602001908152602001600020614f2d90919063ffffffff16565b5061498181600160008573ffffffffffffffffffffffffffffffffffffffff1673ffffffffffffffffffffffffffffffffffffffff168152602001908152602001600020614f4790919063ffffffff16565b5061499881836002614f619092919063ffffffff16565b50808273ffffffffffffffffffffffffffffffffffffffff168473ffffffffffffffffffffffffffffffffffffffff167fddf252ad1be2c89b69c2b068fc378daa952ba7f163c4a11628f55a4df523b3ef60405160405180910390a4505050565b6000614a088360000183614f96565b60001c905092915050565b600080600080614a268660000186615019565b915091508160001c8160001c8090509350935050509250929050565b600073ffffffffffffffffffffffffffffffffffffffff168273ffffffffffffffffffffffffffffffffffffffff161415614ae5576040517f08c379a00000000000000000000000000000000000000000000000000000000081526004018080602001828103825260208152602001807f4552433732313a206d696e7420746f20746865207a65726f206164647265737381525060200191505060405180910390fd5b614aee816146c3565b15614b61576040517f08c379a000000000000000000000000000000000000000000000000000000000815260040180806020018281038252601c8152602001807f4552433732313a20746f6b656e20616c7265616479206d696e7465640000000081525060200191505060405180910390fd5b614b6d60008383614f28565b614bbe81600160008573ffffffffffffffffffffffffffffffffffffffff1673ffffffffffffffffffffffffffffffffffffffff168152602001908152602001600020614f4790919063ffffffff16565b50614bd581836002614f619092919063ffffffff16565b50808273ffffffffffffffffffffffffffffffffffffffff16600073ffffffffffffffffffffffffffffffffffffffff167fddf252ad1be2c89b69c2b068fc378daa952ba7f163c4a11628f55a4df523b3ef60405160405180910390a45050565b614c3f826146c3565b614c94576040517f08c379a000000000000000000000000000000000000000000000000000000000815260040180806020018281038252602c815260200180615e37602c913960400191505060405180910390fd5b80600860008481526020019081526020016000209080519060200190614cbb929190615b71565b505050565b6000614cd3846000018460001b846150b2565b60001c90509392505050565b6000614ced826000016151a8565b9050919050565b60006107d1444260405160200180838152602001828152602001925050506040516020818303038152906040528051906020012060001c81614d3257fe5b06905090565b614d438484846147b6565b614d4f848484846151b9565b614da4576040517f08c379a0000000000000000000000000000000000000000000000000000000008152600401808060200182810382526032815260200180615c7c6032913960400191505060405180910390fd5b50505050565b60606000821415614df2576040518060400160405280600181526020017f30000000000000000000000000000000000000000000000000000000000000008152509050614ed5565b600082905060005b60008214614e1c578080600101915050600a8281614e1457fe5b049150614dfa565b6060816040519080825280601f01601f191660200182016040528015614e515781602001600182028038833980820191505090505b50905060006001830390508593505b60008414614ecd57600a8481614e7257fe5b0660300160f81b82828060019003935081518110614e8c57fe5b60200101907effffffffffffffffffffffffffffffffffffffffffffffffffffffffffffff1916908160001a905350600a8481614ec557fe5b049350614e60565b819450505050505b919050565b614ef2600182600001546153fe90919063ffffffff16565b816000018190555050565b6000614f0f836000018360001b615481565b905092915050565b600081600001805490509050919050565b505050565b6000614f3f836000018360001b6154a4565b905092915050565b6000614f59836000018360001b61558c565b905092915050565b6000614f8d846000018460001b8473ffffffffffffffffffffffffffffffffffffffff1660001b6155fc565b90509392505050565b600081836000018054905011614ff7576040517f08c379a0000000000000000000000000000000000000000000000000000000008152600401808060200182810382526022815260200180615c5a6022913960400191505060405180910390fd5b82600001828154811061500657fe5b9060005260206000200154905092915050565b6000808284600001805490501161507b576040517f08c379a0000000000000000000000000000000000000000000000000000000008152600401808060200182810382526022815260200180615de96022913960400191505060405180910390fd5b600084600001848154811061508c57fe5b906000526020600020906002020190508060000154816001015492509250509250929050565b60008084600101600085815260200190815260200160002054905060008114158390615179576040517f08c379a00000000000000000000000000000000000000000000000000000000081526004018080602001828103825283818151815260200191508051906020019080838360005b8381101561513e578082015181840152602081019050615123565b50505050905090810190601f16801561516b5780820380516001836020036101000a031916815260200191505b509250505060405180910390fd5b5084600001600182038154811061518c57fe5b9060005260206000209060020201600101549150509392505050565b600081600001805490509050919050565b60006151da8473ffffffffffffffffffffffffffffffffffffffff166156d8565b6151e757600190506153f6565b606061537d63150b7a0260e01b6151fc6146e0565b888787604051602401808573ffffffffffffffffffffffffffffffffffffffff1673ffffffffffffffffffffffffffffffffffffffff1681526020018473ffffffffffffffffffffffffffffffffffffffff1673ffffffffffffffffffffffffffffffffffffffff16815260200183815260200180602001828103825283818151815260200191508051906020019080838360005b838110156152ac578082015181840152602081019050615291565b50505050905090810190601f1680156152d95780820380516001836020036101000a031916815260200191505b5095505050505050604051602081830303815290604052907bffffffffffffffffffffffffffffffffffffffffffffffffffffffff19166020820180517bffffffffffffffffffffffffffffffffffffffffffffffffffffffff8381831617835250505050604051806060016040528060328152602001615c7c603291398773ffffffffffffffffffffffffffffffffffffffff166156eb9092919063ffffffff16565b9050600081806020019051602081101561539657600080fd5b8101908080519060200190929190505050905063150b7a0260e01b7bffffffffffffffffffffffffffffffffffffffffffffffffffffffff1916817bffffffffffffffffffffffffffffffffffffffffffffffffffffffff191614925050505b949350505050565b600082821115615476576040517f08c379a000000000000000000000000000000000000000000000000000000000815260040180806020018281038252601e8152602001807f536166654d6174683a207375627472616374696f6e206f766572666c6f77000081525060200191505060405180910390fd5b818303905092915050565b600080836001016000848152602001908152602001600020541415905092915050565b6000808360010160008481526020019081526020016000205490506000811461558057600060018203905060006001866000018054905003905060008660000182815481106154ef57fe5b906000526020600020015490508087600001848154811061550c57fe5b906000526020600020018190555060018301876001016000838152602001908152602001600020819055508660000180548061554457fe5b60019003818190600052602060002001600090559055866001016000878152602001908152602001600020600090556001945050505050615586565b60009150505b92915050565b60006155988383615703565b6155f15782600001829080600181540180825580915050600190039060005260206000200160009091909190915055826000018054905083600101600084815260200190815260200160002081905550600190506155f6565b600090505b92915050565b60008084600101600085815260200190815260200160002054905060008114156156a3578460000160405180604001604052808681526020018581525090806001815401808255809150506001900390600052602060002090600202016000909190919091506000820151816000015560208201518160010155505084600001805490508560010160008681526020019081526020016000208190555060019150506156d1565b828560000160018303815481106156b657fe5b90600052602060002090600202016001018190555060009150505b9392505050565b600080823b905060008111915050919050565b60606156fa8484600085615726565b90509392505050565b600080836001016000848152602001908152602001600020541415905092915050565b606082471015615781576040517f08c379a0000000000000000000000000000000000000000000000000000000008152600401808060200182810382526026815260200180615d0c6026913960400191505060405180910390fd5b61578a856156d8565b6157fc576040517f08c379a000000000000000000000000000000000000000000000000000000000815260040180806020018281038252601d8152602001807f416464726573733a2063616c6c20746f206e6f6e2d636f6e747261637400000081525060200191505060405180910390fd5b600060608673ffffffffffffffffffffffffffffffffffffffff1685876040518082805190602001908083835b6020831061584c5780518252602082019150602081019050602083039250615829565b6001836020036101000a03801982511681845116808217855250505050505090500191505060006040518083038185875af1925050503d80600081146158ae576040519150601f19603f3d011682016040523d82523d6000602084013e6158b3565b606091505b50915091506158c38282866158cf565b92505050949350505050565b606083156158df57829050615994565b6000835111156158f25782518084602001fd5b816040517f08c379a00000000000000000000000000000000000000000000000000000000081526004018080602001828103825283818151815260200191508051906020019080838360005b8381101561595957808201518184015260208101905061593e565b50505050905090810190601f1680156159865780820380516001836020036101000a031916815260200191505b509250505060405180910390fd5b9392505050565b60405180610140016040528060008152602001600015158152602001600073ffffffffffffffffffffffffffffffffffffffff16815260200160008152602001600081526020016060815260200160008152602001600073ffffffffffffffffffffffffffffffffffffffff168152602001600081526020016000151581525090565b828054828255906000526020600020908101928215615a97579160200282015b82811115615a965782518260006101000a81548173ffffffffffffffffffffffffffffffffffffffff021916908373ffffffffffffffffffffffffffffffffffffffff16021790555091602001919060010190615a3e565b5b509050615aa49190615bf1565b5090565b6040518060800160405280606081526020016000815260200160008152602001600081525090565b828054600181600116156101000203166002900490600052602060002090601f016020900481019282601f10615b1157805160ff1916838001178555615b3f565b82800160010185558215615b3f579182015b82811115615b3e578251825591602001919060010190615b23565b5b509050615b4c9190615c34565b5090565b5080546000825590600052602060002090810190615b6e9190615c34565b50565b828054600181600116156101000203166002900490600052602060002090601f016020900481019282601f10615bb257805160ff1916838001178555615be0565b82800160010185558215615be0579182015b82811115615bdf578251825591602001919060010190615bc4565b5b509050615bed9190615c34565b5090565b615c3191905b80821115615c2d57600081816101000a81549073ffffffffffffffffffffffffffffffffffffffff021916905550600101615bf7565b5090565b90565b615c5691905b80821115615c52576000816000905550600101615c3a565b5090565b9056fe456e756d657261626c655365743a20696e646578206f7574206f6620626f756e64734552433732313a207472616e7366657220746f206e6f6e20455243373231526563656976657220696d706c656d656e7465724552433732313a207472616e7366657220746f20746865207a65726f2061646472657373416464726573733a20756e61626c6520746f2073656e642076616c75652c20726563697069656e74206d61792068617665207265766572746564416464726573733a20696e73756666696369656e742062616c616e636520666f722063616c6c4552433732313a206f70657261746f7220717565727920666f72206e6f6e6578697374656e7420746f6b656e4552433732313a20617070726f76652063616c6c6572206973206e6f74206f776e6572206e6f7220617070726f76656420666f7220616c6c4552433732313a2062616c616e636520717565727920666f7220746865207a65726f20616464726573734552433732313a206f776e657220717565727920666f72206e6f6e6578697374656e7420746f6b656e456e756d657261626c654d61703a20696e646578206f7574206f6620626f756e64734552433732313a20617070726f76656420717565727920666f72206e6f6e6578697374656e7420746f6b656e4552433732314d657461646174613a2055524920736574206f66206e6f6e6578697374656e7420746f6b656e4552433732313a207472616e73666572206f6620746f6b656e2074686174206973206e6f74206f776e4552433732314d657461646174613a2055524920717565727920666f72206e6f6e6578697374656e7420746f6b656e4552433732313a20617070726f76616c20746f2063757272656e74206f776e65724552433732313a207472616e736665722063616c6c6572206973206e6f74206f776e6572206e6f7220617070726f766564a26469706673582212206db260ef591b63a59fc967ed51bb317146aaea573a9c71ced296d7877d904b5964736f6c63430006020033",
  "source": "pragma solidity ^0.6.2;\r\n\r\nimport \"@openzeppelin/contracts/token/ERC721/ERC721.sol\";\r\nimport \"@openzeppelin/contracts/utils/Counters.sol\";\r\nimport \"@openzeppelin/contracts/math/SafeMath.sol\";\r\nimport \"@openzeppelin/contracts/utils/Address.sol\";\r\n\r\ncontract farmToken is ERC721 {\r\n    using Counters for Counters.Counter;\r\n    Counters.Counter private _tokenIds;\r\n\r\n    using Address for address payable;\r\n    using Address for address;\r\n\r\n    using SafeMath for uint256;\r\n\r\n    string public _name = \"FarmItem\";\r\n    string public _symbol = \"FRM\";\r\n    address public Owner;\r\n\r\n    constructor() public ERC721(_name, _symbol) {\r\n        Owner = msg.sender;\r\n    }\r\n\r\n    modifier onlyAdmin {\r\n    require(Owner == msg.sender);\r\n        _;\r\n    }\r\n    \r\n    mapping(address => bool) register; // Create a mapping to track breeder\r\n    Counters.Counter public BreederNumber;\r\n    mapping(uint256 => address) breederRegister;  // each id is linked to an owner address : breederRegister[token] = address\r\n    event registered(address addr, bool status);\r\n    //event breederRegistered(address addr, uint256 token);\r\n\r\n    struct features{\r\n        string name;\r\n        uint256 PV;\r\n        uint256 ATK;\r\n        uint256 DEF;\r\n    }\r\n\r\n    mapping(uint256 => features) characteristic;  //  each id is linked to a feature\r\n\r\n    function registerBreeder(address _add) onlyAdmin \r\n        external\r\n    {\r\n        require(!register[_add], \"not subscribe.\");\r\n        register[_add] = true;\r\n        BreederNumber.increment();\r\n        emit registered(_add, true);\r\n    }\r\n\r\n    modifier onlyBreeder {\r\n    require(register[msg.sender]);\r\n        _;\r\n    }\r\n\r\n    // generate random number for characteristic\r\n    // maybe not that safe , can be tampered ? use an Oracle?\r\n    function random() \r\n        private view \r\n        returns (uint256) \r\n    {\r\n        //uint256 randomHash = uint256(keccak256(abi.encodePacked(block.difficulty, now))); // now (uint): current block timestamp (alias for block.timestamp)\r\n        return uint256(keccak256(abi.encodePacked(block.difficulty, now))) % 2001; // between 0 and 2000\r\n        //return uint8(uint256(keccak256(block.timestamp, block.difficulty))%2001); // integer between 0 and 2000 , block.timestamp is assigned by the miner whenever he confirms the transaction\r\n    } \r\n\r\n    // use URI : https://my-json-server.typicode.com/bjeab1507/NFTtoken/\r\n    function declareAnimal (string memory tokenURI , string memory name) onlyBreeder \r\n        public\r\n        returns (uint256)\r\n    {\r\n        //features memory newfeatures = features(nom,rand() % 2000,rand() % 2000,rand() % 2000); // btw 0 and 2000\r\n        features memory newfeatures = features(name,random()/10,random()+5,random()-23); // btw 0 and 2000\r\n        _tokenIds.increment();\r\n\r\n        // new token\r\n        uint256 newItemId = _tokenIds.current();\r\n        _mint(msg.sender, newItemId); // mint to the caller\r\n        _setTokenURI(newItemId, tokenURI);\r\n\r\n        breederRegister[newItemId] = msg.sender; // id => owner\r\n        characteristic[newItemId] = newfeatures; // id => feature\r\n\r\n        return newItemId;\r\n    }\r\n    function seeFeatures(uint256 tokenId) \r\n        public view \r\n        returns (string memory , uint256 , uint256 , uint256 )\r\n    {\r\n        return (characteristic[tokenId].name, characteristic[tokenId].PV, characteristic[tokenId].ATK, characteristic[tokenId].DEF );\r\n    }\r\n    \r\n    function deadAnimal(uint256 tokenId)\r\n        internal \r\n        returns(bool success)\r\n    {\r\n        //delete breederRegister[tokenId];\r\n        //delete characteristic[tokenId];\r\n        require(_exists(tokenId), \"not minted\");\r\n        _burn(tokenId);\r\n        return true;\r\n    }\r\n\r\n    function breedAnimal(uint256 tokenId_1, uint256 tokenId_2, string calldata tokenURI, string calldata new_name) onlyBreeder\r\n        external \r\n        returns (uint256)\r\n    {\r\n        require(_isApprovedOrOwner(msg.sender,tokenId_1),\"not yours\"); //tokenId_1 does not belongs to caller\r\n        require(_isApprovedOrOwner(msg.sender,tokenId_2),\"not yours\");\r\n\r\n        //merge features\r\n        //uint256 PV= (characteristic[tokenId_1].PV+ characteristic[tokenId_2].PV)/2;\r\n        //uint256 ATK= (characteristic[tokenId_1].ATK+ characteristic[tokenId_2].ATK)/2;\r\n        //uint256 DEF= (characteristic[tokenId_1].DEF+ characteristic[tokenId_2].DEF)/2;\r\n        features memory newfeaturesmix = features(new_name,(characteristic[tokenId_1].PV+ characteristic[tokenId_2].PV)/2,(characteristic[tokenId_1].ATK+ characteristic[tokenId_2].ATK)/2,(characteristic[tokenId_1].DEF+ characteristic[tokenId_2].DEF)/2); // btw 0 and 2000\r\n        //features memory newfeaturesmix = features(new_name,PV,ATK,DEF);\r\n\r\n        // new token\r\n        _tokenIds.increment();\r\n        uint256 newItemId = _tokenIds.current();\r\n        _mint(msg.sender, newItemId); // mint to the caller\r\n        _setTokenURI(newItemId, tokenURI);\r\n\r\n        breederRegister[newItemId] = msg.sender; // id => owner\r\n        characteristic[newItemId] = newfeaturesmix; // id => feature\r\n        \r\n        return newItemId;\r\n    }\r\n\r\n    event GotPaid(address addr, uint256 value);\r\n    event Refund(address addr,uint256 value);\r\n    event ValueReceived(address user, uint amount);\r\n    /** \r\n    receive() external payable {\r\n        emit ValueReceived(msg.sender, msg.value);\r\n    }\r\n    */\r\n\r\n    mapping (address => uint256) wanteedToken;\r\n    address payable[] wanter;\r\n    function wantTokenNb(uint256 token) onlyBreeder external returns(bool success) { // sign for the wanted token\r\n        require(Auction_Token[token].tokenId,'not on auction');\r\n        wanteedToken[msg.sender] = token;\r\n        wanter.push(payable(msg.sender));\r\n        return true;\r\n    }\r\n\r\n    fallback() external payable {\r\n        //emit GotPaid(msg.sender,msg.value);\r\n        if(IsIn(wanter, msg.sender)){\r\n            uint256 token = wanteedToken[msg.sender];\r\n            if(Auction_Token[token].tokenId){\r\n                bidOnAuction(token);\r\n            }\r\n            else{\r\n                msg.sender.sendValue(msg.value);\r\n                //emit Refund(msg.sender,msg.value);\r\n            }\r\n        }\r\n        else{\r\n            msg.sender.sendValue(msg.value); // send back exces funds\r\n            //emit Refund(msg.sender,msg.value);\r\n        }\r\n    }\r\n    //Auction \r\n\r\n    Counters.Counter AuctionNumber ; // nAuction\r\n    Counters.Counter public openAuction ; // number of openAuction\r\n    Auction[] public auctions; // list of ongoing Auction\r\n\r\n    struct Auction {\r\n        uint256 number;\r\n        bool tokenId; //token used\r\n        address payable owner;\r\n        uint256 start;\r\n        uint256 nbdays;\r\n        //address payable[] bidders; // bidders[addr] = bid\r\n        mapping (address=> uint256) bidders;\r\n        address payable[] users;\r\n        uint256 highestBid;\r\n        address highestBidder;\r\n        uint256 canceled;\r\n        bool completed;\r\n    }\r\n\r\n    event AuctionCreated(address owner, uint256 numAuctions);\r\n    event Bid(address bidder, uint256 bid, address highestBidder, uint256 highestBid);\r\n    event Claimed(address withdrawer, address claimer, uint256 token);\r\n\r\n    mapping (uint256 => Auction) Auction_Token ;// each id is link to an Auction instance\r\n\r\n    /**\r\n    function allAuctions() public view returns (Auction[] memory) {\r\n        return auctions;\r\n    }\r\n     */\r\n\r\n    // betstart = 1000000000000000000 = 1ETH\r\n    function createAuction(uint256 tokenId, uint256 betstart) onlyBreeder\r\n        external \r\n        returns(bool success)\r\n    {\r\n        require(_isApprovedOrOwner(msg.sender,tokenId),\"not yours\");\r\n        require(!Auction_Token[tokenId].tokenId,'already on auction');\r\n\r\n        // new auction\r\n        AuctionNumber.increment();\r\n        uint256 newId = AuctionNumber.current();\r\n        //address [] memory biddersList;\r\n        address payable[] memory users;\r\n        uint256 biddingTime = 2;\r\n        uint256 close = now + biddingTime * 1 days;\r\n        uint256 onewei = 1 wei;\r\n        Auction memory newauction = Auction(newId,true, msg.sender,betstart*onewei,biddingTime,users,0,address(0),close,false);\r\n        Auction_Token[tokenId] = newauction;\r\n        openAuction.increment();\r\n        auctions.push(newauction);\r\n        //auctions.push(AuctionNumber);\r\n        //auctions[AuctionNumber] = newauction;\r\n        AuctionCreated(msg.sender, newId);\r\n        return true;\r\n    }\r\n    /** \r\n    function seeAuction(uint256 tokenId) \r\n        external view \r\n        returns (uint256,address payable , uint256 , uint256 , address payable[] memory , uint256 , address )\r\n    {\r\n        require(Auction_Token[tokenId].tokenId,'on auction');\r\n        return (Auction_Token[tokenId].number, Auction_Token[tokenId].owner, Auction_Token[tokenId].start, Auction_Token[tokenId].nbdays, Auction_Token[tokenId].users,Auction_Token[tokenId].highestBid,Auction_Token[tokenId].highestBidder);\r\n    }\r\n    */\r\n\r\n    //mapping (address => uint256) fundsByBidders;\r\n    // is a payable function, when Ethers is send to the function, this Ether will be added to the balance of the contract\r\n    function bidOnAuction(uint256 tokenId) onlyBreeder\r\n        internal\r\n        returns(bool bet)\r\n    {\r\n        //msg.sender.transfer(msg.value);\r\n        require(now <= Auction_Token[tokenId].canceled, \"end\");\r\n        require(!Auction_Token[tokenId].completed, \"reward end\");\r\n        require(msg.value > 0, \"send some ether\");\r\n        require(Auction_Token[tokenId].tokenId,'on auction');\r\n        require(msg.value > Auction_Token[tokenId].start);\r\n        uint256 currentHighBid = Auction_Token[tokenId].highestBid;\r\n        uint256 bid = 0;\r\n        if (IsIn(Auction_Token[tokenId].users,msg.sender)){ // has alredy bet on this auction\r\n            uint256 newbid = Auction_Token[tokenId].bidders[msg.sender] + msg.value;\r\n            Auction_Token[tokenId].bidders[msg.sender] = newbid; // bidders => bid\r\n            if(getHighestBid(newbid,currentHighBid )){\r\n                Auction_Token[tokenId].highestBid = newbid;\r\n                Auction_Token[tokenId].highestBidder = msg.sender;\r\n                bid = newbid;\r\n            }\r\n        }\r\n        else {\r\n            Auction_Token[tokenId].users.push(payable(msg.sender));\r\n            Auction_Token[tokenId].bidders[msg.sender] = msg.value; // bidders => bid\r\n            if(getHighestBid(msg.value,currentHighBid )){ // ffrst bid in this auction\r\n                Auction_Token[tokenId].highestBid = msg.value;\r\n                Auction_Token[tokenId].highestBidder = msg.sender;\r\n                bid = msg.value;\r\n            }\r\n            else{\r\n                msg.sender.sendValue( msg.value);\r\n            }\r\n        }\r\n        Bid(msg.sender, bid , Auction_Token[tokenId].highestBidder, Auction_Token[tokenId].highestBid);\r\n        return true;\r\n    }\r\n\r\n    function IsIn(address payable[] memory name, address addr) internal pure returns(bool) {\r\n        for(uint256 i = 0 ; i<name.length ; i++) {\r\n            if( name[i] == addr) {\r\n            return true;\r\n        }\r\n    }\r\n    }\r\n    /** \r\n    function getIndex(address payable[] memory name, address addr) internal pure returns(uint256) {\r\n        for(uint256 i = 0 ; i<name.length ; i++) {\r\n            if( name[i] == addr) {\r\n            return i;\r\n        }\r\n    }\r\n    }\r\n    */\r\n    function getHighestBid(uint256 bid , uint256 currentHighBid)\r\n        internal pure\r\n        returns (bool)\r\n    {\r\n        if (bid <= currentHighBid){\r\n            return false;\r\n        }\r\n        else{\r\n            return true;\r\n        }\r\n    }\r\n    function claimByForce(uint256 tokenId) onlyAdmin\r\n        external\r\n        returns (bool)\r\n    {\r\n        require(Auction_Token[tokenId].tokenId,'on auction');\r\n        Auction_Token[tokenId].canceled = now;\r\n    }\r\n\r\n    function claimAuction(uint tokenId) onlyBreeder\r\n        external \r\n        returns(bool success) \r\n    {\r\n        require(now >= Auction_Token[tokenId].canceled, \"not ended\");\r\n        require(!Auction_Token[tokenId].completed, \"reward ended\");\r\n        require(Auction_Token[tokenId].highestBidder == msg.sender);\r\n\r\n        _approve(msg.sender, tokenId);\r\n        transferFrom(Auction_Token[tokenId].owner,msg.sender,tokenId) ;\r\n        Auction_Token[tokenId].completed = true;\r\n\r\n        // payment\r\n        uint256 pay = Auction_Token[tokenId].highestBid;\r\n        Auction_Token[tokenId].owner.sendValue( pay);\r\n        delete wanteedToken[msg.sender];\r\n        delete Auction_Token[tokenId].bidders[msg.sender];\r\n        Claimed(Auction_Token[tokenId].owner, msg.sender, tokenId);\r\n        return true;\r\n    }\r\n\r\n    function withdrawPayment(uint tokenId) onlyBreeder\r\n        external\r\n        returns(bool success)\r\n    {\r\n        require(Auction_Token[tokenId].completed, \"reward not ended\");\r\n        require(IsIn(Auction_Token[tokenId].users,msg.sender)); // as bet in this auction\r\n        // refund\r\n        uint256 pay = Auction_Token[tokenId].bidders[msg.sender];\r\n        msg.sender.sendValue(pay);\r\n        Auction_Token[tokenId].tokenId = false;\r\n        delete Auction_Token[tokenId].bidders[msg.sender]; // remove bidder from list\r\n        delete wanteedToken[msg.sender];\r\n        // remove bidder from list payable , delate and shift to the left\r\n        uint Arrlength = Auction_Token[tokenId].users.length;\r\n        //uint index = getIndex(Auction_Token[tokenId].users,msg.sender);\r\n        uint256 index;\r\n        for(uint256 i = 0 ; i<Arrlength-1 ; i++) {\r\n            if( Auction_Token[tokenId].users[i] == msg.sender) {\r\n                index = i;\r\n        }}\r\n        //address payable element = Auction_Token[tokenId].users[index];\r\n        for(uint256 ip = index; ip<Arrlength-1; ip++){\r\n            Auction_Token[tokenId].users[ip] = Auction_Token[tokenId].users[ip+1];\r\n        }\r\n        delete Auction_Token[tokenId].users[Arrlength-1];\r\n\r\n        // delete from ongoing auction\r\n        if (Auction_Token[tokenId].users.length == 0){\r\n            delete auctions[Auction_Token[tokenId].number-1];\r\n            delete Auction_Token[tokenId];\r\n            openAuction.decrement();\r\n        }\r\n        return true;\r\n    }\r\n\r\n    /** \r\n    function proposeToFight() public {\r\n\r\n    }\r\n\r\n    function agreeToFight() public {\r\n        \r\n    }\r\n    */\r\n}",
  "sourcePath": "C:/Users/BJeab/Documents/ESILV/S8/Blockchain Programming/TD/TD6/NFTtoken/truffle-smart-contract/contracts/MyToken.sol",
  "compiler": {
    "name": "solc",
    "version": "0.6.2+commit.bacdbe57.Emscripten.clang"
  },
  "schemaVersion": "3.3.4",
  "updatedAt": "2021-03-21T22:11:49.175Z",
  "networkType": "ethereum",
  "devdoc": {
    "methods": {
      "approve(address,uint256)": {
        "details": "See {IERC721-approve}."
      },
      "balanceOf(address)": {
        "details": "See {IERC721-balanceOf}."
      },
      "baseURI()": {
        "details": "Returns the base URI set via {_setBaseURI}. This will be automatically added as a prefix in {tokenURI} to each token's URI, or to the token ID if no specific URI is set for that token ID."
      },
      "getApproved(uint256)": {
        "details": "See {IERC721-getApproved}."
      },
      "isApprovedForAll(address,address)": {
        "details": "See {IERC721-isApprovedForAll}."
      },
      "name()": {
        "details": "See {IERC721Metadata-name}."
      },
      "ownerOf(uint256)": {
        "details": "See {IERC721-ownerOf}."
      },
      "safeTransferFrom(address,address,uint256)": {
        "details": "See {IERC721-safeTransferFrom}."
      },
      "safeTransferFrom(address,address,uint256,bytes)": {
        "details": "See {IERC721-safeTransferFrom}."
      },
      "setApprovalForAll(address,bool)": {
        "details": "See {IERC721-setApprovalForAll}."
      },
      "supportsInterface(bytes4)": {
        "details": "See {IERC165-supportsInterface}.     * Time complexity O(1), guaranteed to always use less than 30 000 gas."
      },
      "symbol()": {
        "details": "See {IERC721Metadata-symbol}."
      },
      "tokenByIndex(uint256)": {
        "details": "See {IERC721Enumerable-tokenByIndex}."
      },
      "tokenOfOwnerByIndex(address,uint256)": {
        "details": "See {IERC721Enumerable-tokenOfOwnerByIndex}."
      },
      "tokenURI(uint256)": {
        "details": "See {IERC721Metadata-tokenURI}."
      },
      "totalSupply()": {
        "details": "See {IERC721Enumerable-totalSupply}."
      },
      "transferFrom(address,address,uint256)": {
        "details": "See {IERC721-transferFrom}."
      }
    }
  },
  "userdoc": {
    "methods": {
      "createAuction(uint256,uint256)": {
        "notice": "function allAuctions() public view returns (Auction[] memory) { return auctions; }"
      }
    }
  }
}