{
  "contractName": "farmToken",
  "abi": [
    {
      "inputs": [],
      "stateMutability": "nonpayable",
      "type": "constructor"
    },
    {
      "anonymous": false,
      "inputs": [
        {
          "indexed": true,
          "internalType": "address",
          "name": "owner",
          "type": "address"
        },
        {
          "indexed": true,
          "internalType": "address",
          "name": "approved",
          "type": "address"
        },
        {
          "indexed": true,
          "internalType": "uint256",
          "name": "tokenId",
          "type": "uint256"
        }
      ],
      "name": "Approval",
      "type": "event"
    },
    {
      "anonymous": false,
      "inputs": [
        {
          "indexed": true,
          "internalType": "address",
          "name": "owner",
          "type": "address"
        },
        {
          "indexed": true,
          "internalType": "address",
          "name": "operator",
          "type": "address"
        },
        {
          "indexed": false,
          "internalType": "bool",
          "name": "approved",
          "type": "bool"
        }
      ],
      "name": "ApprovalForAll",
      "type": "event"
    },
    {
      "anonymous": false,
      "inputs": [
        {
          "indexed": false,
          "internalType": "address",
          "name": "owner",
          "type": "address"
        },
        {
          "indexed": false,
          "internalType": "uint256",
          "name": "numAuctions",
          "type": "uint256"
        }
      ],
      "name": "AuctionCreated",
      "type": "event"
    },
    {
      "anonymous": false,
      "inputs": [
        {
          "indexed": false,
          "internalType": "address",
          "name": "bidder",
          "type": "address"
        },
        {
          "indexed": false,
          "internalType": "uint256",
          "name": "bid",
          "type": "uint256"
        },
        {
          "indexed": false,
          "internalType": "address",
          "name": "highestBidder",
          "type": "address"
        },
        {
          "indexed": false,
          "internalType": "uint256",
          "name": "highestBid",
          "type": "uint256"
        }
      ],
      "name": "Bid",
      "type": "event"
    },
    {
      "anonymous": false,
      "inputs": [
        {
          "indexed": false,
          "internalType": "address",
          "name": "withdrawer",
          "type": "address"
        },
        {
          "indexed": false,
          "internalType": "address",
          "name": "claimer",
          "type": "address"
        },
        {
          "indexed": false,
          "internalType": "uint256",
          "name": "token",
          "type": "uint256"
        }
      ],
      "name": "Claimed",
      "type": "event"
    },
    {
      "anonymous": false,
      "inputs": [
        {
          "indexed": false,
          "internalType": "address",
          "name": "addr",
          "type": "address"
        },
        {
          "indexed": false,
          "internalType": "uint256",
          "name": "value",
          "type": "uint256"
        }
      ],
      "name": "GotPaid",
      "type": "event"
    },
    {
      "anonymous": false,
      "inputs": [
        {
          "indexed": false,
          "internalType": "address",
          "name": "addr",
          "type": "address"
        },
        {
          "indexed": false,
          "internalType": "uint256",
          "name": "value",
          "type": "uint256"
        }
      ],
      "name": "Refund",
      "type": "event"
    },
    {
      "anonymous": false,
      "inputs": [
        {
          "indexed": true,
          "internalType": "address",
          "name": "from",
          "type": "address"
        },
        {
          "indexed": true,
          "internalType": "address",
          "name": "to",
          "type": "address"
        },
        {
          "indexed": true,
          "internalType": "uint256",
          "name": "tokenId",
          "type": "uint256"
        }
      ],
      "name": "Transfer",
      "type": "event"
    },
    {
      "anonymous": false,
      "inputs": [
        {
          "indexed": false,
          "internalType": "address",
          "name": "user",
          "type": "address"
        },
        {
          "indexed": false,
          "internalType": "uint256",
          "name": "amount",
          "type": "uint256"
        }
      ],
      "name": "ValueReceived",
      "type": "event"
    },
    {
      "anonymous": false,
      "inputs": [
        {
          "indexed": false,
          "internalType": "address",
          "name": "addr",
          "type": "address"
        },
        {
          "indexed": false,
          "internalType": "bool",
          "name": "status",
          "type": "bool"
        }
      ],
      "name": "registered",
      "type": "event"
    },
    {
      "stateMutability": "payable",
      "type": "fallback",
      "payable": true
    },
    {
      "inputs": [],
      "name": "BreederNumber",
      "outputs": [
        {
          "internalType": "uint256",
          "name": "_value",
          "type": "uint256"
        }
      ],
      "stateMutability": "view",
      "type": "function",
      "constant": true
    },
    {
      "inputs": [],
      "name": "Owner",
      "outputs": [
        {
          "internalType": "address",
          "name": "",
          "type": "address"
        }
      ],
      "stateMutability": "view",
      "type": "function",
      "constant": true
    },
    {
      "inputs": [],
      "name": "_name",
      "outputs": [
        {
          "internalType": "string",
          "name": "",
          "type": "string"
        }
      ],
      "stateMutability": "view",
      "type": "function",
      "constant": true
    },
    {
      "inputs": [],
      "name": "_symbol",
      "outputs": [
        {
          "internalType": "string",
          "name": "",
          "type": "string"
        }
      ],
      "stateMutability": "view",
      "type": "function",
      "constant": true
    },
    {
      "inputs": [
        {
          "internalType": "address",
          "name": "to",
          "type": "address"
        },
        {
          "internalType": "uint256",
          "name": "tokenId",
          "type": "uint256"
        }
      ],
      "name": "approve",
      "outputs": [],
      "stateMutability": "nonpayable",
      "type": "function"
    },
    {
      "inputs": [
        {
          "internalType": "uint256",
          "name": "",
          "type": "uint256"
        }
      ],
      "name": "auctions",
      "outputs": [
        {
          "internalType": "uint256",
          "name": "number",
          "type": "uint256"
        },
        {
          "internalType": "bool",
          "name": "tokenId",
          "type": "bool"
        },
        {
          "internalType": "address payable",
          "name": "owner",
          "type": "address"
        },
        {
          "internalType": "uint256",
          "name": "start",
          "type": "uint256"
        },
        {
          "internalType": "uint256",
          "name": "nbdays",
          "type": "uint256"
        },
        {
          "internalType": "uint256",
          "name": "highestBid",
          "type": "uint256"
        },
        {
          "internalType": "address",
          "name": "highestBidder",
          "type": "address"
        },
        {
          "internalType": "uint256",
          "name": "canceled",
          "type": "uint256"
        },
        {
          "internalType": "bool",
          "name": "completed",
          "type": "bool"
        }
      ],
      "stateMutability": "view",
      "type": "function",
      "constant": true
    },
    {
      "inputs": [
        {
          "internalType": "address",
          "name": "owner",
          "type": "address"
        }
      ],
      "name": "balanceOf",
      "outputs": [
        {
          "internalType": "uint256",
          "name": "",
          "type": "uint256"
        }
      ],
      "stateMutability": "view",
      "type": "function",
      "constant": true
    },
    {
      "inputs": [],
      "name": "baseURI",
      "outputs": [
        {
          "internalType": "string",
          "name": "",
          "type": "string"
        }
      ],
      "stateMutability": "view",
      "type": "function",
      "constant": true
    },
    {
      "inputs": [
        {
          "internalType": "uint256",
          "name": "tokenId",
          "type": "uint256"
        }
      ],
      "name": "getApproved",
      "outputs": [
        {
          "internalType": "address",
          "name": "",
          "type": "address"
        }
      ],
      "stateMutability": "view",
      "type": "function",
      "constant": true
    },
    {
      "inputs": [
        {
          "internalType": "address",
          "name": "owner",
          "type": "address"
        },
        {
          "internalType": "address",
          "name": "operator",
          "type": "address"
        }
      ],
      "name": "isApprovedForAll",
      "outputs": [
        {
          "internalType": "bool",
          "name": "",
          "type": "bool"
        }
      ],
      "stateMutability": "view",
      "type": "function",
      "constant": true
    },
    {
      "inputs": [],
      "name": "name",
      "outputs": [
        {
          "internalType": "string",
          "name": "",
          "type": "string"
        }
      ],
      "stateMutability": "view",
      "type": "function",
      "constant": true
    },
    {
      "inputs": [],
      "name": "openAuction",
      "outputs": [
        {
          "internalType": "uint256",
          "name": "_value",
          "type": "uint256"
        }
      ],
      "stateMutability": "view",
      "type": "function",
      "constant": true
    },
    {
      "inputs": [
        {
          "internalType": "uint256",
          "name": "tokenId",
          "type": "uint256"
        }
      ],
      "name": "ownerOf",
      "outputs": [
        {
          "internalType": "address",
          "name": "",
          "type": "address"
        }
      ],
      "stateMutability": "view",
      "type": "function",
      "constant": true
    },
    {
      "inputs": [
        {
          "internalType": "address",
          "name": "from",
          "type": "address"
        },
        {
          "internalType": "address",
          "name": "to",
          "type": "address"
        },
        {
          "internalType": "uint256",
          "name": "tokenId",
          "type": "uint256"
        }
      ],
      "name": "safeTransferFrom",
      "outputs": [],
      "stateMutability": "nonpayable",
      "type": "function"
    },
    {
      "inputs": [
        {
          "internalType": "address",
          "name": "from",
          "type": "address"
        },
        {
          "internalType": "address",
          "name": "to",
          "type": "address"
        },
        {
          "internalType": "uint256",
          "name": "tokenId",
          "type": "uint256"
        },
        {
          "internalType": "bytes",
          "name": "_data",
          "type": "bytes"
        }
      ],
      "name": "safeTransferFrom",
      "outputs": [],
      "stateMutability": "nonpayable",
      "type": "function"
    },
    {
      "inputs": [
        {
          "internalType": "address",
          "name": "operator",
          "type": "address"
        },
        {
          "internalType": "bool",
          "name": "approved",
          "type": "bool"
        }
      ],
      "name": "setApprovalForAll",
      "outputs": [],
      "stateMutability": "nonpayable",
      "type": "function"
    },
    {
      "inputs": [
        {
          "internalType": "bytes4",
          "name": "interfaceId",
          "type": "bytes4"
        }
      ],
      "name": "supportsInterface",
      "outputs": [
        {
          "internalType": "bool",
          "name": "",
          "type": "bool"
        }
      ],
      "stateMutability": "view",
      "type": "function",
      "constant": true
    },
    {
      "inputs": [],
      "name": "symbol",
      "outputs": [
        {
          "internalType": "string",
          "name": "",
          "type": "string"
        }
      ],
      "stateMutability": "view",
      "type": "function",
      "constant": true
    },
    {
      "inputs": [
        {
          "internalType": "uint256",
          "name": "index",
          "type": "uint256"
        }
      ],
      "name": "tokenByIndex",
      "outputs": [
        {
          "internalType": "uint256",
          "name": "",
          "type": "uint256"
        }
      ],
      "stateMutability": "view",
      "type": "function",
      "constant": true
    },
    {
      "inputs": [
        {
          "internalType": "address",
          "name": "owner",
          "type": "address"
        },
        {
          "internalType": "uint256",
          "name": "index",
          "type": "uint256"
        }
      ],
      "name": "tokenOfOwnerByIndex",
      "outputs": [
        {
          "internalType": "uint256",
          "name": "",
          "type": "uint256"
        }
      ],
      "stateMutability": "view",
      "type": "function",
      "constant": true
    },
    {
      "inputs": [
        {
          "internalType": "uint256",
          "name": "tokenId",
          "type": "uint256"
        }
      ],
      "name": "tokenURI",
      "outputs": [
        {
          "internalType": "string",
          "name": "",
          "type": "string"
        }
      ],
      "stateMutability": "view",
      "type": "function",
      "constant": true
    },
    {
      "inputs": [],
      "name": "totalSupply",
      "outputs": [
        {
          "internalType": "uint256",
          "name": "",
          "type": "uint256"
        }
      ],
      "stateMutability": "view",
      "type": "function",
      "constant": true
    },
    {
      "inputs": [
        {
          "internalType": "address",
          "name": "from",
          "type": "address"
        },
        {
          "internalType": "address",
          "name": "to",
          "type": "address"
        },
        {
          "internalType": "uint256",
          "name": "tokenId",
          "type": "uint256"
        }
      ],
      "name": "transferFrom",
      "outputs": [],
      "stateMutability": "nonpayable",
      "type": "function"
    },
    {
      "inputs": [
        {
          "internalType": "address",
          "name": "_add",
          "type": "address"
        }
      ],
      "name": "registerBreeder",
      "outputs": [],
      "stateMutability": "nonpayable",
      "type": "function"
    },
    {
      "inputs": [
        {
          "internalType": "string",
          "name": "tokenURI",
          "type": "string"
        },
        {
          "internalType": "string",
          "name": "name",
          "type": "string"
        }
      ],
      "name": "declareAnimal",
      "outputs": [
        {
          "internalType": "uint256",
          "name": "",
          "type": "uint256"
        }
      ],
      "stateMutability": "nonpayable",
      "type": "function"
    },
    {
      "inputs": [
        {
          "internalType": "uint256",
          "name": "tokenId_1",
          "type": "uint256"
        },
        {
          "internalType": "uint256",
          "name": "tokenId_2",
          "type": "uint256"
        },
        {
          "internalType": "string",
          "name": "tokenURI",
          "type": "string"
        },
        {
          "internalType": "string",
          "name": "new_name",
          "type": "string"
        }
      ],
      "name": "breedAnimal",
      "outputs": [
        {
          "internalType": "uint256",
          "name": "",
          "type": "uint256"
        }
      ],
      "stateMutability": "nonpayable",
      "type": "function"
    },
    {
      "inputs": [
        {
          "internalType": "uint256",
          "name": "tokenId",
          "type": "uint256"
        },
        {
          "internalType": "uint256",
          "name": "betstart",
          "type": "uint256"
        }
      ],
      "name": "createAuction",
      "outputs": [
        {
          "internalType": "bool",
          "name": "success",
          "type": "bool"
        }
      ],
      "stateMutability": "nonpayable",
      "type": "function"
    },
    {
      "inputs": [
        {
          "internalType": "uint256",
          "name": "tokenId",
          "type": "uint256"
        }
      ],
      "name": "bidOnAuction",
      "outputs": [
        {
          "internalType": "bool",
          "name": "bet",
          "type": "bool"
        }
      ],
      "stateMutability": "payable",
      "type": "function",
      "payable": true
    },
    {
      "inputs": [
        {
          "internalType": "uint256",
          "name": "tokenId",
          "type": "uint256"
        }
      ],
      "name": "claimAuction",
      "outputs": [
        {
          "internalType": "bool",
          "name": "success",
          "type": "bool"
        }
      ],
      "stateMutability": "nonpayable",
      "type": "function"
    },
    {
      "inputs": [
        {
          "internalType": "uint256",
          "name": "tokenId",
          "type": "uint256"
        }
      ],
      "name": "withdrawPayment",
      "outputs": [
        {
          "internalType": "bool",
          "name": "success",
          "type": "bool"
        }
      ],
      "stateMutability": "nonpayable",
      "type": "function"
    }
  ],
  "bytecode": "0x60806040526040518060400160405280600881526020017f4661726d4974656d000000000000000000000000000000000000000000000000815250600b908051906020019062000051929190620003d0565b506040518060400160405280600381526020017f46524d0000000000000000000000000000000000000000000000000000000000815250600c90805190602001906200009f929190620003d0565b50348015620000ad57600080fd5b50600b8054600181600116156101000203166002900480601f016020809104026020016040519081016040528092919081815260200182805460018160011615610100020316600290048015620001485780601f106200011c5761010080835404028352916020019162000148565b820191906000526020600020905b8154815290600101906020018083116200012a57829003601f168201915b5050505050600c8054600181600116156101000203166002900480601f016020809104026020016040519081016040528092919081815260200182805460018160011615610100020316600290048015620001e75780601f10620001bb57610100808354040283529160200191620001e7565b820191906000526020600020905b815481529060010190602001808311620001c957829003601f168201915b5050505050620002046301ffc9a760e01b620002c760201b60201c565b81600690805190602001906200021c929190620003d0565b50806007908051906020019062000235929190620003d0565b506200024e6380ac58cd60e01b620002c760201b60201c565b62000266635b5e139f60e01b620002c760201b60201c565b6200027e63780e9d6360e01b620002c760201b60201c565b505033600d60006101000a81548173ffffffffffffffffffffffffffffffffffffffff021916908373ffffffffffffffffffffffffffffffffffffffff1602179055506200047f565b63ffffffff60e01b817bffffffffffffffffffffffffffffffffffffffffffffffffffffffff1916141562000364576040517f08c379a000000000000000000000000000000000000000000000000000000000815260040180806020018281038252601c8152602001807f4552433136353a20696e76616c696420696e746572666163652069640000000081525060200191505060405180910390fd5b6001600080837bffffffffffffffffffffffffffffffffffffffffffffffffffffffff19167bffffffffffffffffffffffffffffffffffffffffffffffffffffffff1916815260200190815260200160002060006101000a81548160ff02191690831515021790555050565b828054600181600116156101000203166002900490600052602060002090601f016020900481019282601f106200041357805160ff191683800117855562000444565b8280016001018555821562000444579182015b828111156200044357825182559160200191906001019062000426565b5b50905062000453919062000457565b5090565b6200047c91905b80821115620004785760008160009055506001016200045e565b5090565b90565b615930806200048f6000396000f3fe6080604052600436106101d15760003560e01c80635e14e48f116100f7578063b09f126611610095578063c87b56dd11610064578063c87b56dd14610f56578063d28d88521461100a578063dbd3cd621461109a578063e985e9c5146110ed576101d2565b8063b09f126614610c6e578063b45bbab514610cfe578063b4a99a4e14610ded578063b88d4fde14610e44576101d2565b806370a08231116100d157806370a0823114610ac957806395d89b4114610b2e5780639aafc6c914610bbe578063a22cb46514610c11576101d2565b80635e14e48f146108bb5780636352211e146109be5780636c0360eb14610a39576101d2565b806323b872dd1161016f57806342842e0e1161013e57806342842e0e146106b9578063476fd474146107345780634f6ccce714610785578063571a26a0146107d4576101d2565b806323b872dd1461055e57806326b7aeea146105d957806328d467d01461061f5780632f745c591461064a576101d2565b806306fdde03116101ab57806306fdde03146103cd578063081812fc1461045d578063095ea7b3146104d857806318160ddd14610533576101d2565b80630121683f146102d357806301ffc9a71461033057806304cb72f9146103a2576101d2565b5b7f31e471ae6f5650d0adf9e6a366450f875f617f7082cd82235a97b3b8f7d945993334604051808373ffffffffffffffffffffffffffffffffffffffff1673ffffffffffffffffffffffffffffffffffffffff1681526020018281526020019250505060405180910390a1610266343373ffffffffffffffffffffffffffffffffffffffff1661117690919063ffffffff16565b7fbb28353e4598c3b9199101a66e0989549b659a59a54d2c27fbb183f1932c8e6d3334604051808373ffffffffffffffffffffffffffffffffffffffff1673ffffffffffffffffffffffffffffffffffffffff1681526020018281526020019250505060405180910390a1005b3480156102df57600080fd5b50610316600480360360408110156102f657600080fd5b8101908080359060200190929190803590602001909291905050506112b0565b604051808215151515815260200191505060405180910390f35b34801561033c57600080fd5b506103886004803603602081101561035357600080fd5b8101908080357bffffffffffffffffffffffffffffffffffffffffffffffffffffffff191690602001909291905050506117d2565b604051808215151515815260200191505060405180910390f35b3480156103ae57600080fd5b506103b7611839565b6040518082815260200191505060405180910390f35b3480156103d957600080fd5b506103e2611845565b6040518080602001828103825283818151815260200191508051906020019080838360005b83811015610422578082015181840152602081019050610407565b50505050905090810190601f16801561044f5780820380516001836020036101000a031916815260200191505b509250505060405180910390f35b34801561046957600080fd5b506104966004803603602081101561048057600080fd5b81019080803590602001909291905050506118e7565b604051808273ffffffffffffffffffffffffffffffffffffffff1673ffffffffffffffffffffffffffffffffffffffff16815260200191505060405180910390f35b3480156104e457600080fd5b50610531600480360360408110156104fb57600080fd5b81019080803573ffffffffffffffffffffffffffffffffffffffff16906020019092919080359060200190929190505050611982565b005b34801561053f57600080fd5b50610548611ac6565b6040518082815260200191505060405180910390f35b34801561056a57600080fd5b506105d76004803603606081101561058157600080fd5b81019080803573ffffffffffffffffffffffffffffffffffffffff169060200190929190803573ffffffffffffffffffffffffffffffffffffffff16906020019092919080359060200190929190505050611ad7565b005b610605600480360360208110156105ef57600080fd5b8101908080359060200190929190505050611b4d565b604051808215151515815260200191505060405180910390f35b34801561062b57600080fd5b50610634612278565b6040518082815260200191505060405180910390f35b34801561065657600080fd5b506106a36004803603604081101561066d57600080fd5b81019080803573ffffffffffffffffffffffffffffffffffffffff16906020019092919080359060200190929190505050612284565b6040518082815260200191505060405180910390f35b3480156106c557600080fd5b50610732600480360360608110156106dc57600080fd5b81019080803573ffffffffffffffffffffffffffffffffffffffff169060200190929190803573ffffffffffffffffffffffffffffffffffffffff169060200190929190803590602001909291905050506122df565b005b34801561074057600080fd5b506107836004803603602081101561075757600080fd5b81019080803573ffffffffffffffffffffffffffffffffffffffff1690602001909291905050506122ff565b005b34801561079157600080fd5b506107be600480360360208110156107a857600080fd5b81019080803590602001909291905050506124ee565b6040518082815260200191505060405180910390f35b3480156107e057600080fd5b5061080d600480360360208110156107f757600080fd5b8101908080359060200190929190505050612511565b604051808a8152602001891515151581526020018873ffffffffffffffffffffffffffffffffffffffff1673ffffffffffffffffffffffffffffffffffffffff1681526020018781526020018681526020018581526020018473ffffffffffffffffffffffffffffffffffffffff1673ffffffffffffffffffffffffffffffffffffffff16815260200183815260200182151515158152602001995050505050505050505060405180910390f35b3480156108c757600080fd5b506109a8600480360360808110156108de57600080fd5b8101908080359060200190929190803590602001909291908035906020019064010000000081111561090f57600080fd5b82018360208201111561092157600080fd5b8035906020019184600183028401116401000000008311171561094357600080fd5b90919293919293908035906020019064010000000081111561096457600080fd5b82018360208201111561097657600080fd5b8035906020019184600183028401116401000000008311171561099857600080fd5b90919293919293905050506125c6565b6040518082815260200191505060405180910390f35b3480156109ca57600080fd5b506109f7600480360360208110156109e157600080fd5b8101908080359060200190929190505050612950565b604051808273ffffffffffffffffffffffffffffffffffffffff1673ffffffffffffffffffffffffffffffffffffffff16815260200191505060405180910390f35b348015610a4557600080fd5b50610a4e612987565b6040518080602001828103825283818151815260200191508051906020019080838360005b83811015610a8e578082015181840152602081019050610a73565b50505050905090810190601f168015610abb5780820380516001836020036101000a031916815260200191505b509250505060405180910390f35b348015610ad557600080fd5b50610b1860048036036020811015610aec57600080fd5b81019080803573ffffffffffffffffffffffffffffffffffffffff169060200190929190505050612a29565b6040518082815260200191505060405180910390f35b348015610b3a57600080fd5b50610b43612afe565b6040518080602001828103825283818151815260200191508051906020019080838360005b83811015610b83578082015181840152602081019050610b68565b50505050905090810190601f168015610bb05780820380516001836020036101000a031916815260200191505b509250505060405180910390f35b348015610bca57600080fd5b50610bf760048036036020811015610be157600080fd5b8101908080359060200190929190505050612ba0565b604051808215151515815260200191505060405180910390f35b348015610c1d57600080fd5b50610c6c60048036036040811015610c3457600080fd5b81019080803573ffffffffffffffffffffffffffffffffffffffff169060200190929190803515159060200190929190505050612f5b565b005b348015610c7a57600080fd5b50610c83613113565b6040518080602001828103825283818151815260200191508051906020019080838360005b83811015610cc3578082015181840152602081019050610ca8565b50505050905090810190601f168015610cf05780820380516001836020036101000a031916815260200191505b509250505060405180910390f35b348015610d0a57600080fd5b50610dd760048036036040811015610d2157600080fd5b8101908080359060200190640100000000811115610d3e57600080fd5b820183602082011115610d5057600080fd5b80359060200191846001830284011164010000000083111715610d7257600080fd5b909192939192939080359060200190640100000000811115610d9357600080fd5b820183602082011115610da557600080fd5b80359060200191846001830284011164010000000083111715610dc757600080fd5b90919293919293905050506131b1565b6040518082815260200191505060405180910390f35b348015610df957600080fd5b50610e026133ae565b604051808273ffffffffffffffffffffffffffffffffffffffff1673ffffffffffffffffffffffffffffffffffffffff16815260200191505060405180910390f35b348015610e5057600080fd5b50610f5460048036036080811015610e6757600080fd5b81019080803573ffffffffffffffffffffffffffffffffffffffff169060200190929190803573ffffffffffffffffffffffffffffffffffffffff1690602001909291908035906020019092919080359060200190640100000000811115610ece57600080fd5b820183602082011115610ee057600080fd5b80359060200191846001830284011164010000000083111715610f0257600080fd5b91908080601f016020809104026020016040519081016040528093929190818152602001838380828437600081840152601f19601f8201169050808301925050505050505091929192905050506133d4565b005b348015610f6257600080fd5b50610f8f60048036036020811015610f7957600080fd5b810190808035906020019092919050505061344c565b6040518080602001828103825283818151815260200191508051906020019080838360005b83811015610fcf578082015181840152602081019050610fb4565b50505050905090810190601f168015610ffc5780820380516001836020036101000a031916815260200191505b509250505060405180910390f35b34801561101657600080fd5b5061101f61371d565b6040518080602001828103825283818151815260200191508051906020019080838360005b8381101561105f578082015181840152602081019050611044565b50505050905090810190601f16801561108c5780820380516001836020036101000a031916815260200191505b509250505060405180910390f35b3480156110a657600080fd5b506110d3600480360360208110156110bd57600080fd5b81019080803590602001909291905050506137bb565b604051808215151515815260200191505060405180910390f35b3480156110f957600080fd5b5061115c6004803603604081101561111057600080fd5b81019080803573ffffffffffffffffffffffffffffffffffffffff169060200190929190803573ffffffffffffffffffffffffffffffffffffffff169060200190929190505050613dfb565b604051808215151515815260200191505060405180910390f35b804710156111ec576040517f08c379a000000000000000000000000000000000000000000000000000000000815260040180806020018281038252601d8152602001807f416464726573733a20696e73756666696369656e742062616c616e636500000081525060200191505060405180910390fd5b60008273ffffffffffffffffffffffffffffffffffffffff168260405180600001905060006040518083038185875af1925050503d806000811461124c576040519150601f19603f3d011682016040523d82523d6000602084013e611251565b606091505b50509050806112ab576040517f08c379a000000000000000000000000000000000000000000000000000000000815260040180806020018281038252603a8152602001806156c0603a913960400191505060405180910390fd5b505050565b6000600e60003373ffffffffffffffffffffffffffffffffffffffff1673ffffffffffffffffffffffffffffffffffffffff16815260200190815260200160002060009054906101000a900460ff1661130857600080fd5b6113123384613e8f565b611384576040517f08c379a00000000000000000000000000000000000000000000000000000000081526004018080602001828103825260098152602001807f6e6f7420796f757273000000000000000000000000000000000000000000000081525060200191505060405180910390fd5b6015600084815260200190815260200160002060010160009054906101000a900460ff161561141b576040517f08c379a00000000000000000000000000000000000000000000000000000000081526004018080602001828103825260128152602001807f616c7265616479206f6e2061756374696f6e000000000000000000000000000081525060200191505060405180910390fd5b6114256012613f83565b60006114316012613f99565b9050606060006002905060006201518082024201905061144f615389565b6040518061014001604052808681526020016001151581526020013373ffffffffffffffffffffffffffffffffffffffff16815260200188815260200184815260200185815260200160008152602001600073ffffffffffffffffffffffffffffffffffffffff16815260200183815260200160001515815250905080601560008a81526020019081526020016000206000820151816000015560208201518160010160006101000a81548160ff02191690831515021790555060408201518160010160016101000a81548173ffffffffffffffffffffffffffffffffffffffff021916908373ffffffffffffffffffffffffffffffffffffffff160217905550606082015181600201556080820151816003015560a082015181600501908051906020019061158092919061540c565b5060c0820151816006015560e08201518160070160006101000a81548173ffffffffffffffffffffffffffffffffffffffff021916908373ffffffffffffffffffffffffffffffffffffffff16021790555061010082015181600801556101208201518160090160006101000a81548160ff02191690831515021790555090505061160b6013613f83565b60148190806001815401808255809150506001900390600052602060002090600a02016000909190919091506000820151816000015560208201518160010160006101000a81548160ff02191690831515021790555060408201518160010160016101000a81548173ffffffffffffffffffffffffffffffffffffffff021916908373ffffffffffffffffffffffffffffffffffffffff160217905550606082015181600201556080820151816003015560a08201518160050190805190602001906116d892919061540c565b5060c0820151816006015560e08201518160070160006101000a81548173ffffffffffffffffffffffffffffffffffffffff021916908373ffffffffffffffffffffffffffffffffffffffff16021790555061010082015181600801556101208201518160090160006101000a81548160ff02191690831515021790555050507f3249a06bd478adf780bb7930214ad005e9cfa517d63221c0b77f27199d1a58b33386604051808373ffffffffffffffffffffffffffffffffffffffff1673ffffffffffffffffffffffffffffffffffffffff1681526020018281526020019250505060405180910390a160019550505050505092915050565b6000806000837bffffffffffffffffffffffffffffffffffffffffffffffffffffffff19167bffffffffffffffffffffffffffffffffffffffffffffffffffffffff1916815260200190815260200160002060009054906101000a900460ff169050919050565b60138060000154905081565b606060068054600181600116156101000203166002900480601f0160208091040260200160405190810160405280929190818152602001828054600181600116156101000203166002900480156118dd5780601f106118b2576101008083540402835291602001916118dd565b820191906000526020600020905b8154815290600101906020018083116118c057829003601f168201915b5050505050905090565b60006118f282613fa7565b611947576040517f08c379a000000000000000000000000000000000000000000000000000000000815260040180806020018281038252602c8152602001806157f9602c913960400191505060405180910390fd5b6004600083815260200190815260200160002060009054906101000a900473ffffffffffffffffffffffffffffffffffffffff169050919050565b600061198d82612950565b90508073ffffffffffffffffffffffffffffffffffffffff168373ffffffffffffffffffffffffffffffffffffffff161415611a14576040517f08c379a00000000000000000000000000000000000000000000000000000000081526004018080602001828103825260218152602001806158a96021913960400191505060405180910390fd5b8073ffffffffffffffffffffffffffffffffffffffff16611a33613fc4565b73ffffffffffffffffffffffffffffffffffffffff161480611a625750611a6181611a5c613fc4565b613dfb565b5b611ab7576040517f08c379a000000000000000000000000000000000000000000000000000000000815260040180806020018281038252603881526020018061574c6038913960400191505060405180910390fd5b611ac18383613fcc565b505050565b6000611ad26002614085565b905090565b611ae8611ae2613fc4565b82613e8f565b611b3d576040517f08c379a00000000000000000000000000000000000000000000000000000000081526004018080602001828103825260318152602001806158ca6031913960400191505060405180910390fd5b611b4883838361409a565b505050565b6000600e60003373ffffffffffffffffffffffffffffffffffffffff1673ffffffffffffffffffffffffffffffffffffffff16815260200190815260200160002060009054906101000a900460ff16611ba557600080fd5b6015600083815260200190815260200160002060080154421115611c31576040517f08c379a00000000000000000000000000000000000000000000000000000000081526004018080602001828103825260038152602001807f656e64000000000000000000000000000000000000000000000000000000000081525060200191505060405180910390fd5b6015600083815260200190815260200160002060090160009054906101000a900460ff16611cc7576040517f08c379a000000000000000000000000000000000000000000000000000000000815260040180806020018281038252600a8152602001807f72657761726420656e640000000000000000000000000000000000000000000081525060200191505060405180910390fd5b60003411611d3d576040517f08c379a000000000000000000000000000000000000000000000000000000000815260040180806020018281038252600f8152602001807f73656e6420736f6d65206574686572000000000000000000000000000000000081525060200191505060405180910390fd5b6015600083815260200190815260200160002060010160009054906101000a900460ff16611dd3576040517f08c379a000000000000000000000000000000000000000000000000000000000815260040180806020018281038252600a8152602001807f6f6e2061756374696f6e0000000000000000000000000000000000000000000081525060200191505060405180910390fd5b60156000838152602001908152602001600020600201543411611df557600080fd5b6000601560008481526020019081526020016000206006015490506000809050611eb960156000868152602001908152602001600020600501805480602002602001604051908101604052809291908181526020018280548015611eae57602002820191906000526020600020905b8160009054906101000a900473ffffffffffffffffffffffffffffffffffffffff1673ffffffffffffffffffffffffffffffffffffffff1681526020019060010190808311611e64575b5050505050336142dd565b15611ff9576000346015600087815260200190815260200160002060040160003373ffffffffffffffffffffffffffffffffffffffff1673ffffffffffffffffffffffffffffffffffffffff16815260200190815260200160002054019050806015600087815260200190815260200160002060040160003373ffffffffffffffffffffffffffffffffffffffff1673ffffffffffffffffffffffffffffffffffffffff16815260200190815260200160002081905550611f7a8184614354565b15611ff357806015600087815260200190815260200160002060060181905550336015600087815260200190815260200160002060070160006101000a81548173ffffffffffffffffffffffffffffffffffffffff021916908373ffffffffffffffffffffffffffffffffffffffff1602179055508091505b5061217a565b60156000858152602001908152602001600020600501339080600181540180825580915050600190039060005260206000200160009091909190916101000a81548173ffffffffffffffffffffffffffffffffffffffff021916908373ffffffffffffffffffffffffffffffffffffffff160217905550346015600086815260200190815260200160002060040160003373ffffffffffffffffffffffffffffffffffffffff1673ffffffffffffffffffffffffffffffffffffffff168152602001908152602001600020819055506120d23483614354565b1561214f57346015600086815260200190815260200160002060060181905550336015600086815260200190815260200160002060070160006101000a81548173ffffffffffffffffffffffffffffffffffffffff021916908373ffffffffffffffffffffffffffffffffffffffff160217905550349050612179565b612178343373ffffffffffffffffffffffffffffffffffffffff1661117690919063ffffffff16565b5b5b7f7f863cab1b412077be133ef69af7df0e6aca4c67ff7d89db843d601f124a025d33826015600088815260200190815260200160002060070160009054906101000a900473ffffffffffffffffffffffffffffffffffffffff166015600089815260200190815260200160002060060154604051808573ffffffffffffffffffffffffffffffffffffffff1673ffffffffffffffffffffffffffffffffffffffff1681526020018481526020018373ffffffffffffffffffffffffffffffffffffffff1673ffffffffffffffffffffffffffffffffffffffff16815260200182815260200194505050505060405180910390a1600192505050919050565b600f8060000154905081565b60006122d782600160008673ffffffffffffffffffffffffffffffffffffffff1673ffffffffffffffffffffffffffffffffffffffff16815260200190815260200160002061437190919063ffffffff16565b905092915050565b6122fa838383604051806020016040528060008152506133d4565b505050565b3373ffffffffffffffffffffffffffffffffffffffff16600d60009054906101000a900473ffffffffffffffffffffffffffffffffffffffff1673ffffffffffffffffffffffffffffffffffffffff161461235957600080fd5b600e60008273ffffffffffffffffffffffffffffffffffffffff1673ffffffffffffffffffffffffffffffffffffffff16815260200190815260200160002060009054906101000a900460ff1615612419576040517f08c379a000000000000000000000000000000000000000000000000000000000815260040180806020018281038252600e8152602001807f6e6f74207375627363726962652e00000000000000000000000000000000000081525060200191505060405180910390fd5b6001600e60008373ffffffffffffffffffffffffffffffffffffffff1673ffffffffffffffffffffffffffffffffffffffff16815260200190815260200160002060006101000a81548160ff02191690831515021790555061247b600f613f83565b7fd2443b4f2e3183c42db8c9d6959f19efd8dd179604c0b0b0c7500df86200f90a816001604051808373ffffffffffffffffffffffffffffffffffffffff1673ffffffffffffffffffffffffffffffffffffffff168152602001821515151581526020019250505060405180910390a150565b60008061250583600261438b90919063ffffffff16565b50905080915050919050565b6014818154811061251e57fe5b90600052602060002090600a02016000915090508060000154908060010160009054906101000a900460ff16908060010160019054906101000a900473ffffffffffffffffffffffffffffffffffffffff16908060020154908060030154908060060154908060070160009054906101000a900473ffffffffffffffffffffffffffffffffffffffff16908060080154908060090160009054906101000a900460ff16905089565b6000600e60003373ffffffffffffffffffffffffffffffffffffffff1673ffffffffffffffffffffffffffffffffffffffff16815260200190815260200160002060009054906101000a900460ff1661261e57600080fd5b6126283388613e8f565b61269a576040517f08c379a00000000000000000000000000000000000000000000000000000000081526004018080602001828103825260098152602001807f6e6f7420796f757273000000000000000000000000000000000000000000000081525060200191505060405180910390fd5b6126a43387613e8f565b612716576040517f08c379a00000000000000000000000000000000000000000000000000000000081526004018080602001828103825260098152602001807f6e6f7420796f757273000000000000000000000000000000000000000000000081525060200191505060405180910390fd5b61271e615496565b604051806080016040528085858080601f016020809104026020016040519081016040528093929190818152602001838380828437600081840152601f19601f8201169050808301925050505050505081526020016002601160008b815260200190815260200160002060010154601160008d81526020019081526020016000206001015401816127ab57fe5b0481526020016002601160008b815260200190815260200160002060020154601160008d81526020019081526020016000206002015401816127e957fe5b0481526020016002601160008b815260200190815260200160002060030154601160008d815260200190815260200160002060030154018161282757fe5b048152509050612837600a613f83565b6000612843600a613f99565b905061284f33826143ba565b61289d8188888080601f016020809104026020016040519081016040528093929190818152602001838380828437600081840152601f19601f820116905080830192505050505050506145ae565b336010600083815260200190815260200160002060006101000a81548173ffffffffffffffffffffffffffffffffffffffff021916908373ffffffffffffffffffffffffffffffffffffffff1602179055508160116000838152602001908152602001600020600082015181600001908051906020019061291f9291906154be565b5060208201518160010155604082015181600201556060820151816003015590505080925050509695505050505050565b6000612980826040518060600160405280602981526020016157ae6029913960026146389092919063ffffffff16565b9050919050565b606060098054600181600116156101000203166002900480601f016020809104026020016040519081016040528092919081815260200182805460018160011615610100020316600290048015612a1f5780601f106129f457610100808354040283529160200191612a1f565b820191906000526020600020905b815481529060010190602001808311612a0257829003601f168201915b5050505050905090565b60008073ffffffffffffffffffffffffffffffffffffffff168273ffffffffffffffffffffffffffffffffffffffff161415612ab0576040517f08c379a000000000000000000000000000000000000000000000000000000000815260040180806020018281038252602a815260200180615784602a913960400191505060405180910390fd5b612af7600160008473ffffffffffffffffffffffffffffffffffffffff1673ffffffffffffffffffffffffffffffffffffffff168152602001908152602001600020614657565b9050919050565b606060078054600181600116156101000203166002900480601f016020809104026020016040519081016040528092919081815260200182805460018160011615610100020316600290048015612b965780601f10612b6b57610100808354040283529160200191612b96565b820191906000526020600020905b815481529060010190602001808311612b7957829003601f168201915b5050505050905090565b6000600e60003373ffffffffffffffffffffffffffffffffffffffff1673ffffffffffffffffffffffffffffffffffffffff16815260200190815260200160002060009054906101000a900460ff16612bf857600080fd5b60156000838152602001908152602001600020600801544211612c83576040517f08c379a00000000000000000000000000000000000000000000000000000000081526004018080602001828103825260098152602001807f6e6f7420656e646564000000000000000000000000000000000000000000000081525060200191505060405180910390fd5b6015600083815260200190815260200160002060090160009054906101000a900460ff1615612d1a576040517f08c379a000000000000000000000000000000000000000000000000000000000815260040180806020018281038252600c8152602001807f72657761726420656e646564000000000000000000000000000000000000000081525060200191505060405180910390fd5b3373ffffffffffffffffffffffffffffffffffffffff166015600084815260200190815260200160002060070160009054906101000a900473ffffffffffffffffffffffffffffffffffffffff1673ffffffffffffffffffffffffffffffffffffffff1614612d8857600080fd5b612d923383613fcc565b612dd36015600084815260200190815260200160002060010160019054906101000a900473ffffffffffffffffffffffffffffffffffffffff163384611ad7565b60016015600084815260200190815260200160002060090160006101000a81548160ff021916908315150217905550600060156000848152602001908152602001600020600601549050612e7c816015600086815260200190815260200160002060010160019054906101000a900473ffffffffffffffffffffffffffffffffffffffff1673ffffffffffffffffffffffffffffffffffffffff1661117690919063ffffffff16565b7ff7a40077ff7a04c7e61f6f26fb13774259ddf1b6bce9ecf26a8276cdd39926836015600085815260200190815260200160002060010160019054906101000a900473ffffffffffffffffffffffffffffffffffffffff163385604051808473ffffffffffffffffffffffffffffffffffffffff1673ffffffffffffffffffffffffffffffffffffffff1681526020018373ffffffffffffffffffffffffffffffffffffffff1673ffffffffffffffffffffffffffffffffffffffff168152602001828152602001935050505060405180910390a16001915050919050565b612f63613fc4565b73ffffffffffffffffffffffffffffffffffffffff168273ffffffffffffffffffffffffffffffffffffffff161415613004576040517f08c379a00000000000000000000000000000000000000000000000000000000081526004018080602001828103825260198152602001807f4552433732313a20617070726f766520746f2063616c6c65720000000000000081525060200191505060405180910390fd5b8060056000613011613fc4565b73ffffffffffffffffffffffffffffffffffffffff1673ffffffffffffffffffffffffffffffffffffffff16815260200190815260200160002060008473ffffffffffffffffffffffffffffffffffffffff1673ffffffffffffffffffffffffffffffffffffffff16815260200190815260200160002060006101000a81548160ff0219169083151502179055508173ffffffffffffffffffffffffffffffffffffffff166130be613fc4565b73ffffffffffffffffffffffffffffffffffffffff167f17307eab39ab6107e8899845ad3d59bd9653f200f220920489ca2b5937696c3183604051808215151515815260200191505060405180910390a35050565b600c8054600181600116156101000203166002900480601f0160208091040260200160405190810160405280929190818152602001828054600181600116156101000203166002900480156131a95780601f1061317e576101008083540402835291602001916131a9565b820191906000526020600020905b81548152906001019060200180831161318c57829003601f168201915b505050505081565b6000600e60003373ffffffffffffffffffffffffffffffffffffffff1673ffffffffffffffffffffffffffffffffffffffff16815260200190815260200160002060009054906101000a900460ff1661320957600080fd5b613211615496565b604051806080016040528085858080601f016020809104026020016040519081016040528093929190818152602001838380828437600081840152601f19601f82011690508083019250505050505050815260200161326e61466c565b815260200161327b61466c565b815260200161328861466c565b8152509050613297600a613f83565b60006132a3600a613f99565b90506132af33826143ba565b6132fd8188888080601f016020809104026020016040519081016040528093929190818152602001838380828437600081840152601f19601f820116905080830192505050505050506145ae565b336010600083815260200190815260200160002060006101000a81548173ffffffffffffffffffffffffffffffffffffffff021916908373ffffffffffffffffffffffffffffffffffffffff1602179055508160116000838152602001908152602001600020600082015181600001908051906020019061337f9291906154be565b506020820151816001015560408201518160020155606082015181600301559050508092505050949350505050565b600d60009054906101000a900473ffffffffffffffffffffffffffffffffffffffff1681565b6133e56133df613fc4565b83613e8f565b61343a576040517f08c379a00000000000000000000000000000000000000000000000000000000081526004018080602001828103825260318152602001806158ca6031913960400191505060405180910390fd5b613446848484846146b0565b50505050565b606061345782613fa7565b6134ac576040517f08c379a000000000000000000000000000000000000000000000000000000000815260040180806020018281038252602f81526020018061587a602f913960400191505060405180910390fd5b6060600860008481526020019081526020016000208054600181600116156101000203166002900480601f0160208091040260200160405190810160405280929190818152602001828054600181600116156101000203166002900480156135555780601f1061352a57610100808354040283529160200191613555565b820191906000526020600020905b81548152906001019060200180831161353857829003601f168201915b505050505090506060613566612987565b905060008151141561357c578192505050613718565b60008251111561364d5780826040516020018083805190602001908083835b602083106135be578051825260208201915060208101905060208303925061359b565b6001836020036101000a03801982511681845116808217855250505050505090500182805190602001908083835b6020831061360f57805182526020820191506020810190506020830392506135ec565b6001836020036101000a0380198251168184511680821785525050505050509050019250505060405160208183030381529060405292505050613718565b8061365785614722565b6040516020018083805190602001908083835b6020831061368d578051825260208201915060208101905060208303925061366a565b6001836020036101000a03801982511681845116808217855250505050505090500182805190602001908083835b602083106136de57805182526020820191506020810190506020830392506136bb565b6001836020036101000a03801982511681845116808217855250505050505090500192505050604051602081830303815290604052925050505b919050565b600b8054600181600116156101000203166002900480601f0160208091040260200160405190810160405280929190818152602001828054600181600116156101000203166002900480156137b35780601f10613788576101008083540402835291602001916137b3565b820191906000526020600020905b81548152906001019060200180831161379657829003601f168201915b505050505081565b6000600e60003373ffffffffffffffffffffffffffffffffffffffff1673ffffffffffffffffffffffffffffffffffffffff16815260200190815260200160002060009054906101000a900460ff1661381357600080fd5b6015600083815260200190815260200160002060090160009054906101000a900460ff166138a9576040517f08c379a000000000000000000000000000000000000000000000000000000000815260040180806020018281038252600c8152602001807f72657761726420656e646564000000000000000000000000000000000000000081525060200191505060405180910390fd5b61394d6015600084815260200190815260200160002060050180548060200260200160405190810160405280929190818152602001828054801561394257602002820191906000526020600020905b8160009054906101000a900473ffffffffffffffffffffffffffffffffffffffff1673ffffffffffffffffffffffffffffffffffffffff16815260200190600101908083116138f8575b5050505050336142dd565b61395657600080fd5b60006015600084815260200190815260200160002060040160003373ffffffffffffffffffffffffffffffffffffffff1673ffffffffffffffffffffffffffffffffffffffff1681526020019081526020016000205490506139d7813373ffffffffffffffffffffffffffffffffffffffff1661117690919063ffffffff16565b6015600084815260200190815260200160002060040160003373ffffffffffffffffffffffffffffffffffffffff1673ffffffffffffffffffffffffffffffffffffffff168152602001908152602001600020600090556000613ad460156000868152602001908152602001600020600501805480602002602001604051908101604052809291908181526020018280548015613ac957602002820191906000526020600020905b8160009054906101000a900473ffffffffffffffffffffffffffffffffffffffff1673ffffffffffffffffffffffffffffffffffffffff1681526020019060010190808311613a7f575b505050505033614852565b905060006015600086815260200190815260200160002060050180549050905060008290505b60018203811015613bca57601560008781526020019081526020016000206005016001820181548110613b2957fe5b9060005260206000200160009054906101000a900473ffffffffffffffffffffffffffffffffffffffff16601560008881526020019081526020016000206005018281548110613b7557fe5b9060005260206000200160006101000a81548173ffffffffffffffffffffffffffffffffffffffff021916908373ffffffffffffffffffffffffffffffffffffffff1602179055508080600101915050613afa565b50601560008681526020019081526020016000206005016001820381548110613bef57fe5b9060005260206000200160006101000a81549073ffffffffffffffffffffffffffffffffffffffff0219169055600060156000878152602001908152602001600020600501805490501415613def576014601560008781526020019081526020016000206000015481548110613c6157fe5b90600052602060002090600a02016000808201600090556001820160006101000a81549060ff02191690556001820160016101000a81549073ffffffffffffffffffffffffffffffffffffffff021916905560028201600090556003820160009055600582016000613cd3919061553e565b60068201600090556007820160006101000a81549073ffffffffffffffffffffffffffffffffffffffff021916905560088201600090556009820160006101000a81549060ff02191690555050601560008681526020019081526020016000206000808201600090556001820160006101000a81549060ff02191690556001820160016101000a81549073ffffffffffffffffffffffffffffffffffffffff021916905560028201600090556003820160009055600582016000613d97919061553e565b60068201600090556007820160006101000a81549073ffffffffffffffffffffffffffffffffffffffff021916905560088201600090556009820160006101000a81549060ff02191690555050613dee60136148c8565b5b60019350505050919050565b6000600560008473ffffffffffffffffffffffffffffffffffffffff1673ffffffffffffffffffffffffffffffffffffffff16815260200190815260200160002060008373ffffffffffffffffffffffffffffffffffffffff1673ffffffffffffffffffffffffffffffffffffffff16815260200190815260200160002060009054906101000a900460ff16905092915050565b6000613e9a82613fa7565b613eef576040517f08c379a000000000000000000000000000000000000000000000000000000000815260040180806020018281038252602c815260200180615720602c913960400191505060405180910390fd5b6000613efa83612950565b90508073ffffffffffffffffffffffffffffffffffffffff168473ffffffffffffffffffffffffffffffffffffffff161480613f6957508373ffffffffffffffffffffffffffffffffffffffff16613f51846118e7565b73ffffffffffffffffffffffffffffffffffffffff16145b80613f7a5750613f798185613dfb565b5b91505092915050565b6001816000016000828254019250508190555050565b600081600001549050919050565b6000613fbd8260026148eb90919063ffffffff16565b9050919050565b600033905090565b816004600083815260200190815260200160002060006101000a81548173ffffffffffffffffffffffffffffffffffffffff021916908373ffffffffffffffffffffffffffffffffffffffff160217905550808273ffffffffffffffffffffffffffffffffffffffff1661403f83612950565b73ffffffffffffffffffffffffffffffffffffffff167f8c5be1e5ebec7d5bd14f71427d1e84f3dd0314c0f7b2291e5b200ac8c7c3b92560405160405180910390a45050565b600061409382600001614905565b9050919050565b8273ffffffffffffffffffffffffffffffffffffffff166140ba82612950565b73ffffffffffffffffffffffffffffffffffffffff1614614126576040517f08c379a00000000000000000000000000000000000000000000000000000000081526004018080602001828103825260298152602001806158516029913960400191505060405180910390fd5b600073ffffffffffffffffffffffffffffffffffffffff168273ffffffffffffffffffffffffffffffffffffffff1614156141ac576040517f08c379a000000000000000000000000000000000000000000000000000000000815260040180806020018281038252602481526020018061569c6024913960400191505060405180910390fd5b6141b7838383614916565b6141c2600082613fcc565b61421381600160008673ffffffffffffffffffffffffffffffffffffffff1673ffffffffffffffffffffffffffffffffffffffff16815260200190815260200160002061491b90919063ffffffff16565b5061426581600160008573ffffffffffffffffffffffffffffffffffffffff1673ffffffffffffffffffffffffffffffffffffffff16815260200190815260200160002061493590919063ffffffff16565b5061427c8183600261494f9092919063ffffffff16565b50808273ffffffffffffffffffffffffffffffffffffffff168473ffffffffffffffffffffffffffffffffffffffff167fddf252ad1be2c89b69c2b068fc378daa952ba7f163c4a11628f55a4df523b3ef60405160405180910390a4505050565b600080600090505b835181101561434c578273ffffffffffffffffffffffffffffffffffffffff1684828151811061431157fe5b602002602001015173ffffffffffffffffffffffffffffffffffffffff16141561433f57600191505061434e565b80806001019150506142e5565b505b92915050565b6000818311614366576000905061436b565b600190505b92915050565b60006143808360000183614984565b60001c905092915050565b60008060008061439e8660000186614a07565b915091508160001c8160001c8090509350935050509250929050565b600073ffffffffffffffffffffffffffffffffffffffff168273ffffffffffffffffffffffffffffffffffffffff16141561445d576040517f08c379a00000000000000000000000000000000000000000000000000000000081526004018080602001828103825260208152602001807f4552433732313a206d696e7420746f20746865207a65726f206164647265737381525060200191505060405180910390fd5b61446681613fa7565b156144d9576040517f08c379a000000000000000000000000000000000000000000000000000000000815260040180806020018281038252601c8152602001807f4552433732313a20746f6b656e20616c7265616479206d696e7465640000000081525060200191505060405180910390fd5b6144e560008383614916565b61453681600160008573ffffffffffffffffffffffffffffffffffffffff1673ffffffffffffffffffffffffffffffffffffffff16815260200190815260200160002061493590919063ffffffff16565b5061454d8183600261494f9092919063ffffffff16565b50808273ffffffffffffffffffffffffffffffffffffffff16600073ffffffffffffffffffffffffffffffffffffffff167fddf252ad1be2c89b69c2b068fc378daa952ba7f163c4a11628f55a4df523b3ef60405160405180910390a45050565b6145b782613fa7565b61460c576040517f08c379a000000000000000000000000000000000000000000000000000000000815260040180806020018281038252602c815260200180615825602c913960400191505060405180910390fd5b8060086000848152602001908152602001600020908051906020019061463392919061555f565b505050565b600061464b846000018460001b84614aa0565b60001c90509392505050565b600061466582600001614b96565b9050919050565b60006107d1444260405160200180838152602001828152602001925050506040516020818303038152906040528051906020012060001c816146aa57fe5b06905090565b6146bb84848461409a565b6146c784848484614ba7565b61471c576040517f08c379a000000000000000000000000000000000000000000000000000000000815260040180806020018281038252603281526020018061566a6032913960400191505060405180910390fd5b50505050565b6060600082141561476a576040518060400160405280600181526020017f3000000000000000000000000000000000000000000000000000000000000000815250905061484d565b600082905060005b60008214614794578080600101915050600a828161478c57fe5b049150614772565b6060816040519080825280601f01601f1916602001820160405280156147c95781602001600182028038833980820191505090505b50905060006001830390508593505b6000841461484557600a84816147ea57fe5b0660300160f81b8282806001900393508151811061480457fe5b60200101907effffffffffffffffffffffffffffffffffffffffffffffffffffffffffffff1916908160001a905350600a848161483d57fe5b0493506147d8565b819450505050505b919050565b600080600090505b83518110156148c0578273ffffffffffffffffffffffffffffffffffffffff1684828151811061488657fe5b602002602001015173ffffffffffffffffffffffffffffffffffffffff1614156148b357809150506148c2565b808060010191505061485a565b505b92915050565b6148e060018260000154614dec90919063ffffffff16565b816000018190555050565b60006148fd836000018360001b614e6f565b905092915050565b600081600001805490509050919050565b505050565b600061492d836000018360001b614e92565b905092915050565b6000614947836000018360001b614f7a565b905092915050565b600061497b846000018460001b8473ffffffffffffffffffffffffffffffffffffffff1660001b614fea565b90509392505050565b6000818360000180549050116149e5576040517f08c379a00000000000000000000000000000000000000000000000000000000081526004018080602001828103825260228152602001806156486022913960400191505060405180910390fd5b8260000182815481106149f457fe5b9060005260206000200154905092915050565b60008082846000018054905011614a69576040517f08c379a00000000000000000000000000000000000000000000000000000000081526004018080602001828103825260228152602001806157d76022913960400191505060405180910390fd5b6000846000018481548110614a7a57fe5b906000526020600020906002020190508060000154816001015492509250509250929050565b60008084600101600085815260200190815260200160002054905060008114158390614b67576040517f08c379a00000000000000000000000000000000000000000000000000000000081526004018080602001828103825283818151815260200191508051906020019080838360005b83811015614b2c578082015181840152602081019050614b11565b50505050905090810190601f168015614b595780820380516001836020036101000a031916815260200191505b509250505060405180910390fd5b50846000016001820381548110614b7a57fe5b9060005260206000209060020201600101549150509392505050565b600081600001805490509050919050565b6000614bc88473ffffffffffffffffffffffffffffffffffffffff166150c6565b614bd55760019050614de4565b6060614d6b63150b7a0260e01b614bea613fc4565b888787604051602401808573ffffffffffffffffffffffffffffffffffffffff1673ffffffffffffffffffffffffffffffffffffffff1681526020018473ffffffffffffffffffffffffffffffffffffffff1673ffffffffffffffffffffffffffffffffffffffff16815260200183815260200180602001828103825283818151815260200191508051906020019080838360005b83811015614c9a578082015181840152602081019050614c7f565b50505050905090810190601f168015614cc75780820380516001836020036101000a031916815260200191505b5095505050505050604051602081830303815290604052907bffffffffffffffffffffffffffffffffffffffffffffffffffffffff19166020820180517bffffffffffffffffffffffffffffffffffffffffffffffffffffffff838183161783525050505060405180606001604052806032815260200161566a603291398773ffffffffffffffffffffffffffffffffffffffff166150d99092919063ffffffff16565b90506000818060200190516020811015614d8457600080fd5b8101908080519060200190929190505050905063150b7a0260e01b7bffffffffffffffffffffffffffffffffffffffffffffffffffffffff1916817bffffffffffffffffffffffffffffffffffffffffffffffffffffffff191614925050505b949350505050565b600082821115614e64576040517f08c379a000000000000000000000000000000000000000000000000000000000815260040180806020018281038252601e8152602001807f536166654d6174683a207375627472616374696f6e206f766572666c6f77000081525060200191505060405180910390fd5b818303905092915050565b600080836001016000848152602001908152602001600020541415905092915050565b60008083600101600084815260200190815260200160002054905060008114614f6e5760006001820390506000600186600001805490500390506000866000018281548110614edd57fe5b9060005260206000200154905080876000018481548110614efa57fe5b9060005260206000200181905550600183018760010160008381526020019081526020016000208190555086600001805480614f3257fe5b60019003818190600052602060002001600090559055866001016000878152602001908152602001600020600090556001945050505050614f74565b60009150505b92915050565b6000614f8683836150f1565b614fdf578260000182908060018154018082558091505060019003906000526020600020016000909190919091505582600001805490508360010160008481526020019081526020016000208190555060019050614fe4565b600090505b92915050565b6000808460010160008581526020019081526020016000205490506000811415615091578460000160405180604001604052808681526020018581525090806001815401808255809150506001900390600052602060002090600202016000909190919091506000820151816000015560208201518160010155505084600001805490508560010160008681526020019081526020016000208190555060019150506150bf565b828560000160018303815481106150a457fe5b90600052602060002090600202016001018190555060009150505b9392505050565b600080823b905060008111915050919050565b60606150e88484600085615114565b90509392505050565b600080836001016000848152602001908152602001600020541415905092915050565b60608247101561516f576040517f08c379a00000000000000000000000000000000000000000000000000000000081526004018080602001828103825260268152602001806156fa6026913960400191505060405180910390fd5b615178856150c6565b6151ea576040517f08c379a000000000000000000000000000000000000000000000000000000000815260040180806020018281038252601d8152602001807f416464726573733a2063616c6c20746f206e6f6e2d636f6e747261637400000081525060200191505060405180910390fd5b600060608673ffffffffffffffffffffffffffffffffffffffff1685876040518082805190602001908083835b6020831061523a5780518252602082019150602081019050602083039250615217565b6001836020036101000a03801982511681845116808217855250505050505090500191505060006040518083038185875af1925050503d806000811461529c576040519150601f19603f3d011682016040523d82523d6000602084013e6152a1565b606091505b50915091506152b18282866152bd565b92505050949350505050565b606083156152cd57829050615382565b6000835111156152e05782518084602001fd5b816040517f08c379a00000000000000000000000000000000000000000000000000000000081526004018080602001828103825283818151815260200191508051906020019080838360005b8381101561534757808201518184015260208101905061532c565b50505050905090810190601f1680156153745780820380516001836020036101000a031916815260200191505b509250505060405180910390fd5b9392505050565b60405180610140016040528060008152602001600015158152602001600073ffffffffffffffffffffffffffffffffffffffff16815260200160008152602001600081526020016060815260200160008152602001600073ffffffffffffffffffffffffffffffffffffffff168152602001600081526020016000151581525090565b828054828255906000526020600020908101928215615485579160200282015b828111156154845782518260006101000a81548173ffffffffffffffffffffffffffffffffffffffff021916908373ffffffffffffffffffffffffffffffffffffffff1602179055509160200191906001019061542c565b5b50905061549291906155df565b5090565b6040518060800160405280606081526020016000815260200160008152602001600081525090565b828054600181600116156101000203166002900490600052602060002090601f016020900481019282601f106154ff57805160ff191683800117855561552d565b8280016001018555821561552d579182015b8281111561552c578251825591602001919060010190615511565b5b50905061553a9190615622565b5090565b508054600082559060005260206000209081019061555c9190615622565b50565b828054600181600116156101000203166002900490600052602060002090601f016020900481019282601f106155a057805160ff19168380011785556155ce565b828001600101855582156155ce579182015b828111156155cd5782518255916020019190600101906155b2565b5b5090506155db9190615622565b5090565b61561f91905b8082111561561b57600081816101000a81549073ffffffffffffffffffffffffffffffffffffffff0219169055506001016155e5565b5090565b90565b61564491905b80821115615640576000816000905550600101615628565b5090565b9056fe456e756d657261626c655365743a20696e646578206f7574206f6620626f756e64734552433732313a207472616e7366657220746f206e6f6e20455243373231526563656976657220696d706c656d656e7465724552433732313a207472616e7366657220746f20746865207a65726f2061646472657373416464726573733a20756e61626c6520746f2073656e642076616c75652c20726563697069656e74206d61792068617665207265766572746564416464726573733a20696e73756666696369656e742062616c616e636520666f722063616c6c4552433732313a206f70657261746f7220717565727920666f72206e6f6e6578697374656e7420746f6b656e4552433732313a20617070726f76652063616c6c6572206973206e6f74206f776e6572206e6f7220617070726f76656420666f7220616c6c4552433732313a2062616c616e636520717565727920666f7220746865207a65726f20616464726573734552433732313a206f776e657220717565727920666f72206e6f6e6578697374656e7420746f6b656e456e756d657261626c654d61703a20696e646578206f7574206f6620626f756e64734552433732313a20617070726f76656420717565727920666f72206e6f6e6578697374656e7420746f6b656e4552433732314d657461646174613a2055524920736574206f66206e6f6e6578697374656e7420746f6b656e4552433732313a207472616e73666572206f6620746f6b656e2074686174206973206e6f74206f776e4552433732314d657461646174613a2055524920717565727920666f72206e6f6e6578697374656e7420746f6b656e4552433732313a20617070726f76616c20746f2063757272656e74206f776e65724552433732313a207472616e736665722063616c6c6572206973206e6f74206f776e6572206e6f7220617070726f766564a2646970667358221220aa5ad8ba216f2294f21270a6458bbcc1d762b1352a5cfa7bd786ecaa0a42f99f64736f6c63430006020033",
  "source": "pragma solidity ^0.6.2;\r\n\r\nimport \"@openzeppelin/contracts/token/ERC721/ERC721.sol\";\r\nimport \"@openzeppelin/contracts/utils/Counters.sol\";\r\nimport \"@openzeppelin/contracts/math/SafeMath.sol\";\r\nimport \"@openzeppelin/contracts/utils/Address.sol\";\r\n\r\ncontract farmToken is ERC721 {\r\n    using Counters for Counters.Counter;\r\n    Counters.Counter private _tokenIds;\r\n\r\n    using Address for address payable;\r\n    using Address for address;\r\n\r\n    using SafeMath for uint256;\r\n\r\n    string public _name = \"FarmItem\";\r\n    string public _symbol = \"FRM\";\r\n    address public Owner;\r\n\r\n    constructor() public ERC721(_name, _symbol) {\r\n        Owner = msg.sender;\r\n    }\r\n\r\n    modifier onlyAdmin {\r\n    require(Owner == msg.sender);\r\n        _;\r\n    }\r\n    \r\n    mapping(address => bool) register; // Create a mapping to track breeder\r\n    Counters.Counter public BreederNumber;\r\n    mapping(uint256 => address) breederRegister;  // each id is linked to an owner address : breederRegister[token] = address\r\n    event registered(address addr, bool status);\r\n    //event breederRegistered(address addr, uint256 token);\r\n\r\n    struct features{\r\n        string name;\r\n        uint256 PV;\r\n        uint256 ATK;\r\n        uint256 DEF;\r\n    }\r\n\r\n    mapping(uint256 => features) characteristic;  //  each id is linked to a feature\r\n\r\n    function registerBreeder(address _add) onlyAdmin \r\n        external\r\n    {\r\n        require(!register[_add], \"not subscribe.\");\r\n        register[_add] = true;\r\n        BreederNumber.increment();\r\n        emit registered(_add, true);\r\n    }\r\n\r\n    modifier onlyBreeder {\r\n    require(register[msg.sender]);\r\n        _;\r\n    }\r\n\r\n    // generate random number for characteristic\r\n    // maybe not that safe , can be tampered ? use an Oracle?\r\n    function random() \r\n        private view \r\n        returns (uint256) \r\n    {\r\n        //uint256 randomHash = uint256(keccak256(abi.encodePacked(block.difficulty, now))); // now (uint): current block timestamp (alias for block.timestamp)\r\n        return uint256(keccak256(abi.encodePacked(block.difficulty, now))) % 2001; // between 0 and 2000\r\n        //return uint8(uint256(keccak256(block.timestamp, block.difficulty))%2001); // integer between 0 and 2000 , block.timestamp is assigned by the miner whenever he confirms the transaction\r\n    } \r\n\r\n    // use URI : https://my-json-server.typicode.com/bjeab1507/NFTtoken/\r\n    function declareAnimal (string calldata tokenURI ,string calldata name) onlyBreeder\r\n        external\r\n        returns (uint256)\r\n    {\r\n        //features memory newfeatures = features(nom,rand() % 2000,rand() % 2000,rand() % 2000); // btw 0 and 2000\r\n        features memory newfeatures = features(name,random(),random(),random()); // btw 0 and 2000\r\n        _tokenIds.increment();\r\n\r\n        // new token\r\n        uint256 newItemId = _tokenIds.current();\r\n        _mint(msg.sender, newItemId); // mint to the caller\r\n        _setTokenURI(newItemId, tokenURI);\r\n\r\n        breederRegister[newItemId] = msg.sender; // id => owner\r\n        characteristic[newItemId] = newfeatures; // id => feature\r\n\r\n        return newItemId;\r\n    }\r\n\r\n    /** \r\n    function seeFeatures(uint256 tokenId) \r\n        public view \r\n        returns (string memory , uint256 , uint256 , uint256 )\r\n    {\r\n        return (characteristic[tokenId].name, characteristic[tokenId].PV, characteristic[tokenId].ATK, characteristic[tokenId].DEF );\r\n    }\r\n    */\r\n\r\n    function deadAnimal(uint256 tokenId) onlyBreeder \r\n        internal \r\n        returns(bool success)\r\n    {\r\n        //delete breederRegister[tokenId];\r\n        //delete characteristic[tokenId];\r\n        require(_exists(tokenId), \"not minted\");\r\n        _burn(tokenId);\r\n        return true;\r\n    }\r\n\r\n    function breedAnimal(uint256 tokenId_1, uint256 tokenId_2, string calldata tokenURI, string calldata new_name) onlyBreeder\r\n        external \r\n        returns (uint256)\r\n    {\r\n        require(_isApprovedOrOwner(msg.sender,tokenId_1),\"not yours\"); //tokenId_1 does not belongs to caller\r\n        require(_isApprovedOrOwner(msg.sender,tokenId_2),\"not yours\");\r\n\r\n        //merge features\r\n        //uint256 PV= (characteristic[tokenId_1].PV+ characteristic[tokenId_2].PV)/2;\r\n        //uint256 ATK= (characteristic[tokenId_1].ATK+ characteristic[tokenId_2].ATK)/2;\r\n        //uint256 DEF= (characteristic[tokenId_1].DEF+ characteristic[tokenId_2].DEF)/2;\r\n        features memory newfeaturesmix = features(new_name,(characteristic[tokenId_1].PV+ characteristic[tokenId_2].PV)/2,(characteristic[tokenId_1].ATK+ characteristic[tokenId_2].ATK)/2,(characteristic[tokenId_1].DEF+ characteristic[tokenId_2].DEF)/2); // btw 0 and 2000\r\n        //features memory newfeaturesmix = features(new_name,PV,ATK,DEF);\r\n\r\n        // new token\r\n        _tokenIds.increment();\r\n        uint256 newItemId = _tokenIds.current();\r\n        _mint(msg.sender, newItemId); // mint to the caller\r\n        _setTokenURI(newItemId, tokenURI);\r\n\r\n        breederRegister[newItemId] = msg.sender; // id => owner\r\n        characteristic[newItemId] = newfeaturesmix; // id => feature\r\n        \r\n        return newItemId;\r\n    }\r\n\r\n    event GotPaid(address addr, uint256 value);\r\n    event Refund(address addr,uint256 value);\r\n    event ValueReceived(address user, uint amount);\r\n    /** \r\n    receive() external payable {\r\n        emit ValueReceived(msg.sender, msg.value);\r\n    }\r\n    */\r\n\r\n    fallback() external payable {\r\n        // send back exces funds\r\n        emit GotPaid(msg.sender,msg.value);\r\n        msg.sender.sendValue(msg.value);\r\n        emit Refund(msg.sender,msg.value);\r\n    }\r\n    //Auction \r\n\r\n    Counters.Counter AuctionNumber ; // nAuction\r\n    Counters.Counter public openAuction ; // number of openAuction\r\n    Auction[] public auctions; // list of ongoing Auction\r\n\r\n    struct Auction {\r\n        uint256 number;\r\n        bool tokenId; //token used\r\n        address payable owner;\r\n        uint256 start;\r\n        uint256 nbdays;\r\n        //address payable[] bidders; // bidders[addr] = bid\r\n        mapping (address=> uint256) bidders;\r\n        address payable[] users;\r\n        uint256 highestBid;\r\n        address highestBidder;\r\n        uint256 canceled;\r\n        bool completed;\r\n    }\r\n\r\n    event AuctionCreated(address owner, uint256 numAuctions);\r\n    event Bid(address bidder, uint256 bid, address highestBidder, uint256 highestBid);\r\n    event Claimed(address withdrawer, address claimer, uint256 token);\r\n\r\n    mapping (uint256 => Auction) Auction_Token ;// each id is link to an Auction instance\r\n\r\n    /**\r\n    function allAuctions() public view returns (Auction[] memory) {\r\n        return auctions;\r\n    }\r\n     */\r\n\r\n    // betstart = 1000000000000000000 = 1ETH\r\n    function createAuction(uint256 tokenId, uint256 betstart) onlyBreeder\r\n        external \r\n        returns(bool success)\r\n    {\r\n        require(_isApprovedOrOwner(msg.sender,tokenId),\"not yours\");\r\n        require(!Auction_Token[tokenId].tokenId,'already on auction');\r\n\r\n        // new auction\r\n        AuctionNumber.increment();\r\n        uint256 newId = AuctionNumber.current();\r\n        //address [] memory biddersList;\r\n        address payable[] memory users;\r\n        uint256 biddingTime = 2;\r\n        uint256 close = now + biddingTime * 1 days;\r\n        Auction memory newauction = Auction(newId,true, msg.sender,betstart,biddingTime,users,0,address(0),close,false);\r\n        Auction_Token[tokenId] = newauction;\r\n        openAuction.increment();\r\n        auctions.push(newauction);\r\n        //auctions.push(AuctionNumber);\r\n        //auctions[AuctionNumber] = newauction;\r\n        AuctionCreated(msg.sender, newId);\r\n        return true;\r\n    }\r\n    /** \r\n    function seeAuction(uint256 tokenId) \r\n        external view \r\n        returns (uint256,address payable , uint256 , uint256 , address payable[] memory , uint256 , address )\r\n    {\r\n        require(Auction_Token[tokenId].tokenId,'on auction');\r\n        return (Auction_Token[tokenId].number, Auction_Token[tokenId].owner, Auction_Token[tokenId].start, Auction_Token[tokenId].nbdays, Auction_Token[tokenId].users,Auction_Token[tokenId].highestBid,Auction_Token[tokenId].highestBidder);\r\n    }\r\n    */\r\n\r\n    //mapping (address => uint256) fundsByBidders;\r\n    // is a payable function, when Ethers is send to the function, this Ether will be added to the balance of the contract\r\n    function bidOnAuction(uint256 tokenId) onlyBreeder\r\n        external payable \r\n        returns(bool bet)\r\n    {\r\n        //msg.sender.transfer(msg.value);\r\n        require(now <= Auction_Token[tokenId].canceled, \"end\");\r\n        require(Auction_Token[tokenId].completed, \"reward end\");\r\n        require(msg.value > 0, \"send some ether\");\r\n        require(Auction_Token[tokenId].tokenId,'on auction');\r\n        require(msg.value > Auction_Token[tokenId].start);\r\n        uint256 currentHighBid = Auction_Token[tokenId].highestBid;\r\n        uint256 bid = 0;\r\n        if (IsIn(Auction_Token[tokenId].users,msg.sender)){ // has alredy bet on this auction\r\n            uint256 newbid = Auction_Token[tokenId].bidders[msg.sender] + msg.value;\r\n            Auction_Token[tokenId].bidders[msg.sender] = newbid; // bidders => bid\r\n            if(getHighestBid(newbid,currentHighBid )){\r\n                Auction_Token[tokenId].highestBid = newbid;\r\n                Auction_Token[tokenId].highestBidder = msg.sender;\r\n                bid = newbid;\r\n            }\r\n        }\r\n        else {\r\n            Auction_Token[tokenId].users.push(payable(msg.sender));\r\n            Auction_Token[tokenId].bidders[msg.sender] = msg.value; // bidders => bid\r\n            if(getHighestBid(msg.value,currentHighBid )){ // ffrst bid in this auction\r\n                Auction_Token[tokenId].highestBid = msg.value;\r\n                Auction_Token[tokenId].highestBidder = msg.sender;\r\n                bid = msg.value;\r\n            }\r\n            else{\r\n                msg.sender.sendValue( msg.value);\r\n            }\r\n        }\r\n        Bid(msg.sender, bid , Auction_Token[tokenId].highestBidder, Auction_Token[tokenId].highestBid);\r\n        return true;\r\n    }\r\n\r\n    function IsIn(address payable[] memory name, address addr) internal pure returns(bool) {\r\n        for(uint256 i = 0 ; i<name.length ; i++) {\r\n            if( name[i] == addr) {\r\n            return true;\r\n        }\r\n    }\r\n    }\r\n    function getIndex(address payable[] memory name, address addr) internal pure returns(uint256) {\r\n        for(uint256 i = 0 ; i<name.length ; i++) {\r\n            if( name[i] == addr) {\r\n            return i;\r\n        }\r\n    }\r\n    }\r\n    function getHighestBid(uint256 bid , uint256 currentHighBid)\r\n        internal pure\r\n        returns (bool)\r\n    {\r\n        if (bid <= currentHighBid){\r\n            return false;\r\n        }\r\n        else{\r\n            return true;\r\n        }\r\n    }\r\n\r\n    function claimAuction(uint tokenId) onlyBreeder\r\n        external \r\n        returns(bool success) \r\n    {\r\n        require(now > Auction_Token[tokenId].canceled, \"not ended\");\r\n        require(!Auction_Token[tokenId].completed, \"reward ended\");\r\n        require(Auction_Token[tokenId].highestBidder == msg.sender);\r\n\r\n        _approve(msg.sender, tokenId);\r\n        transferFrom(Auction_Token[tokenId].owner,msg.sender,tokenId) ;\r\n        Auction_Token[tokenId].completed = true;\r\n\r\n        // payment\r\n        uint256 pay = Auction_Token[tokenId].highestBid;\r\n        Auction_Token[tokenId].owner.sendValue( pay);\r\n        Claimed(Auction_Token[tokenId].owner, msg.sender, tokenId);\r\n        return true;\r\n    }\r\n\r\n    function withdrawPayment(uint tokenId) onlyBreeder\r\n        external\r\n        returns(bool success)\r\n    {\r\n        require(Auction_Token[tokenId].completed, \"reward ended\");\r\n        require(IsIn(Auction_Token[tokenId].users,msg.sender)); // as bet in this auction\r\n        // refund\r\n        uint256 pay = Auction_Token[tokenId].bidders[msg.sender];\r\n        msg.sender.sendValue(pay);\r\n        delete Auction_Token[tokenId].bidders[msg.sender]; // remove bidder from list\r\n        // remove bidder from list payable , delate and shift to the left\r\n        uint index = getIndex(Auction_Token[tokenId].users,msg.sender);\r\n        //address payable element = Auction_Token[tokenId].users[index];\r\n        uint Arrlength = Auction_Token[tokenId].users.length;\r\n        for(uint i = index; i<Arrlength-1; i++){\r\n            Auction_Token[tokenId].users[i] = Auction_Token[tokenId].users[i+1];\r\n        }\r\n        delete Auction_Token[tokenId].users[Arrlength-1];\r\n\r\n        // delete from ongoing auction\r\n        if (Auction_Token[tokenId].users.length == 0){\r\n            delete auctions[Auction_Token[tokenId].number];\r\n            delete Auction_Token[tokenId];\r\n            openAuction.decrement();\r\n        }\r\n        return true;\r\n    }\r\n\r\n    /** \r\n    function proposeToFight() public {\r\n\r\n    }\r\n\r\n    function agreeToFight() public {\r\n        \r\n    }\r\n    */\r\n}",
  "sourcePath": "C:/Users/BJeab/Documents/ESILV/S8/Blockchain Programming/TD/TD6/NFTtoken/truffle-smart-contract/contracts/MyToken.sol",
  "compiler": {
    "name": "solc",
    "version": "0.6.2+commit.bacdbe57.Emscripten.clang"
  },
  "schemaVersion": "3.3.4",
  "updatedAt": "2021-03-21T14:56:47.633Z",
  "networkType": "ethereum",
  "devdoc": {
    "methods": {
      "approve(address,uint256)": {
        "details": "See {IERC721-approve}."
      },
      "balanceOf(address)": {
        "details": "See {IERC721-balanceOf}."
      },
      "baseURI()": {
        "details": "Returns the base URI set via {_setBaseURI}. This will be automatically added as a prefix in {tokenURI} to each token's URI, or to the token ID if no specific URI is set for that token ID."
      },
      "getApproved(uint256)": {
        "details": "See {IERC721-getApproved}."
      },
      "isApprovedForAll(address,address)": {
        "details": "See {IERC721-isApprovedForAll}."
      },
      "name()": {
        "details": "See {IERC721Metadata-name}."
      },
      "ownerOf(uint256)": {
        "details": "See {IERC721-ownerOf}."
      },
      "safeTransferFrom(address,address,uint256)": {
        "details": "See {IERC721-safeTransferFrom}."
      },
      "safeTransferFrom(address,address,uint256,bytes)": {
        "details": "See {IERC721-safeTransferFrom}."
      },
      "setApprovalForAll(address,bool)": {
        "details": "See {IERC721-setApprovalForAll}."
      },
      "supportsInterface(bytes4)": {
        "details": "See {IERC165-supportsInterface}.     * Time complexity O(1), guaranteed to always use less than 30 000 gas."
      },
      "symbol()": {
        "details": "See {IERC721Metadata-symbol}."
      },
      "tokenByIndex(uint256)": {
        "details": "See {IERC721Enumerable-tokenByIndex}."
      },
      "tokenOfOwnerByIndex(address,uint256)": {
        "details": "See {IERC721Enumerable-tokenOfOwnerByIndex}."
      },
      "tokenURI(uint256)": {
        "details": "See {IERC721Metadata-tokenURI}."
      },
      "totalSupply()": {
        "details": "See {IERC721Enumerable-totalSupply}."
      },
      "transferFrom(address,address,uint256)": {
        "details": "See {IERC721-transferFrom}."
      }
    }
  },
  "userdoc": {
    "methods": {
      "bidOnAuction(uint256)": {
        "notice": "function seeAuction(uint256 tokenId)  external view  returns (uint256,address payable , uint256 , uint256 , address payable[] memory , uint256 , address ) { require(Auction_Token[tokenId].tokenId,'on auction'); return (Auction_Token[tokenId].number, Auction_Token[tokenId].owner, Auction_Token[tokenId].start, Auction_Token[tokenId].nbdays, Auction_Token[tokenId].users,Auction_Token[tokenId].highestBid,Auction_Token[tokenId].highestBidder); }"
      },
      "createAuction(uint256,uint256)": {
        "notice": "function allAuctions() public view returns (Auction[] memory) { return auctions; }"
      }
    }
  }
}